:020000040800F2
:10000000C022002021020008D3310008A92B0008DB
:10001000D131000845060008013E0008000000003C
:10002000000000000000000000000000890100083E
:100030008B06000800000000CD010008E13900082F
:100040003B0200083B0200083B0200083B0200089C
:100050003B0200083B0200083B0200083B0200088C
:100060008D0600083B0200083B0200085506000808
:100070003B0200083B0200083B0200083B0200086C
:100080003B0200083B0200086D0400083B02000828
:100090003B0200083B0200083B02000893060008F0
:1000A0003B020008953A00083B0200083B020008AA
:1000B0003B0200083B0200083B0200083B0200082C
:1000C0003B0200083B0200083B02000881380008A0
:1000D0003B020008F53D00083B0200083B02000817
:1000E0003B0200083B0200083B02000800F002F857
:1000F00000F03AF80AA090E8000C82448344AAF188
:100100000107DA4501D100F02FF8AFF2090EBAE885
:100110000F0013F0010F18BFFB1A43F0010318473B
:100120003076000050760000103A24BF78C878C1BD
:10013000FAD8520724BF30C830C144BF04680C60ED
:10014000704700000023002400250026103A28BF35
:1001500078C1FBD8520728BF30C148BF0B60704739
:100160001FB51FBD10B510BD00F045F91146FFF7D2
:10017000F7FF03F0D3FF00F063F903B4FFF7F2FFDA
:1001800003BC00F06BF90000224B19680868B0E866
:10019000F00F80F30988BFF36F8F4FF0000080F3FA
:1001A00011884EF00D0E70470000000006480068F0
:1001B000006880F3088862B661B6BFF34F8FBFF363
:1001C0006F8F00DF00BF00BF08ED00E0EFF3098094
:1001D000BFF36F8F0F4B1A6820E9F00F106008B55E
:1001E0004FF0500080F31188BFF34F8FBFF36F8F34
:1001F00005F066FA4FF0000080F31188BDE8084072
:1002000019680868B0E8F00F80F30988BFF36F8FB2
:10021000704700BF40000020EFF3058070470000EA
:100220000948804709480047FEE7FEE7FEE7FEE78A
:10023000FEE7FEE7FEE7FEE7FEE7FEE704480549C6
:10024000054A064B70470000913A0008ED0000088F
:10025000C01C0020C0220020C01E0020C01E0020A4
:10026000032A40F2308010F0030C00F0158011F8E2
:10027000013BBCF1020F624498BF11F801CB00F8BA
:10028000013B38BF11F8013BA2F1040298BF00F80E
:1002900001CB38BF00F8013B11F0030300F02580CB
:1002A000083AC0F0088051F8043B083A51F804CBF2
:1002B000A0E80810F5E7121D5CBF51F8043B40F8B8
:1002C000043BAFF30080D20724BF11F8013B11F8C3
:1002D00001CB48BF11F8012B24BF00F8013B00F807
:1002E00001CB48BF00F8012B704710B5203AC0F091
:1002F0000B80B1E81850203AA0E81850B1E8185027
:10030000A0E81850BFF4F5AF5FEA027C24BFB1E863
:100310001850A0E8185044BF18C918C0BDE81040D4
:100320005FEA827C24BF51F8043B40F8043B08BFDD
:100330007047D20728BF31F8023B48BF11F8012BA4
:1003400028BF20F8023B48BF00F8012B704702F09D
:10035000FF0343EA032242EA024200F02CB84FF0C6
:10036000000200B5134694469646203922BFA0E805
:100370000C50A0E80C50B1F12001BFF4F7AF090711
:1003800028BFA0E80C5048BF0CC05DF804EB890002
:1003900028BF40F8042B08BF704748BF20F8022B45
:1003A00011F0804F18BF00F8012B7047704770475D
:1003B00070474FF000020429C0F0128010F0030CC7
:1003C0003FF4CFAFCCF1040CBCF1020F18BF00F822
:1003D000012BA8BF20F8022BA1EB0C01FFF7C1BF36
:1003E0005FEAC17C24BF00F8012B00F8012B48BF55
:1003F00000F8012B7047754600F02CF8AE4605005A
:100400006946534620F00700854618B020B5FFF72F
:1004100015FFBDE820404FF000064FF000074FF0F9
:1004200000084FF0000B21F00701AC46ACE8C00912
:10043000ACE8C009ACE8C009ACE8C0098D4670471B
:1004400010B50446AFF300802046BDE81040FFF72A
:1004500094BE0000004870475C1C00200149182031
:10046000ABBEFEE72600020070470000014800F026
:10047000A8B90000FC00002070B50446006881683F
:10048000C943C90717D1816821F00101816000F0DB
:1004900089FE05460AE000BF00F084FE401B0228EA
:1004A00004D920688068C043C00706D020688068EF
:1004B000C043C007F0D0002070BDA06A40F010001B
:1004C000A062E06A40F00100E062012070BD10B55A
:1004D0000146406A826A12F0500F05D0006A026B32
:1004E000BDE8104008461047816A41F400718162FE
:1004F00001688968C1F3424107290CD1017B51B9D8
:10050000816A21F480718162816AC90403D4816A9D
:1005100041F00101816200F051F910BD10B5406A4F
:10052000816A41F040018162C16A41F00401C16207
:1005300000F046F910BD10B5406A00F040F910BD5A
:10054000F8B500260446009600688168C943C907CB
:100550002DD0816841F0010181601648164900687C
:10056000B0FBF1F000E0401E00900028FBD100F04D
:1005700019FE054616E000BF00F014FE401B0228DD
:1005800010D920688068C043C0070BD0A06A40F033
:100590001000A062E06A40F00100E06284F824608C
:1005A0000120F8BD20688068C043C007E4D1002066
:1005B000F8BD00002C00002040420F0070B51E4D19
:1005C000044668889621A0F5FA60404200B203F024
:1005D000DFFC1A4E06F080F9314606F07FF8E06045
:1005E00028889621A0F5FA6000B203F0D1FC06F04D
:1005F00073F9314606F072F82060E8889621A0F57C
:10060000FA60404200B203F0C3FC06F065F93146DF
:1006100006F064F86060A8884FF49671A0F5FA605F
:1006200000B203F0B5FC064D06F056F9294606F077
:1006300055F8A06070BD0000020000200040F144A9
:100640000080DE44FEE703F047FC0A2003F082FD51
:10065000F9E70000014800F0F9BA00002C01002081
:1006600030B590F840500124AC40C56B6C60046814
:1006700063604368102B036803D099600068C26010
:1006800030BD9A600068C16030BD7047042000F042
:100690007BBC10B5202000F077FC402000F074FCFB
:1006A000802000F071FC4FF4807000F06DFCBDE81C
:1006B00010404FF4007000F067BC72B6FEE7704760
:1006C000F8B50024009490F824202546012A12D081
:1006D000012280F824204A681F23072A0DD20668C9
:1006E000776B521E02EB820293409F430B6893404C
:1006F0001F43776319E00220F8BD06680D2A0AD26D
:10070000376BD21F02EB820293409F430B689340EA
:100710001F43376309E0F76A0D3A02EB8202934008
:100720009F430B6893401F43F7620A6807230668DC
:100730000A2A0AD3F7680A3A02EB420293409F431F
:100740008B6893401F43F76008E0376902EB420271
:1007500093409F438B6893401F4337610A68102A78
:1007600001D0112A20D1124B02689A4217D1936806
:100770001B0219D4936843F400039360096810299D
:1007800012D10C490C4A0968B1FBF2F101EB81016D
:10079000490000E0491E00910029FBD104E0816A74
:1007A00041F020018162012480F824502046F8BDE8
:1007B000002401402C00002040420F007047704789
:1007C000704770B50446006806684568A90625D5D7
:1007D000B10723D5A16AC90603D4A16A41F4007107
:1007E000A1628168C1F34241072910D1217B71B90F
:1007F000416821F020014160A06A20F48070A0626D
:10080000A06AC00403D4A06A40F00100A0622046A0
:10081000FFF7D4FF21686FF01200086028062ED57C
:1008200070072CD5A06AC00603D4A06A40F400501B
:10083000A06220688168C1F30231072909D04168AC
:10084000490515D48168C1F34241072910D1217BA4
:1008500071B9416821F080014160A06A20F48050A4
:10086000A062A06AC00503D4A06A40F00100A062A3
:100870002046FFF724FF21686FF00C00086068062F
:100880000CD5F0070AD0A06A40F48030A062204660
:1008900000F094F821686FF00100086070BD00005E
:1008A0002DE9F0414FF0000704003D467ED0A06ADC
:1008B000002628B9E66284F82460204600F080F81B
:1008C0002046FFF7D9FDA16AC90600D420B1A06A6D
:1008D00040F01000A06269E0A16A21F4885141F063
:1008E0000201A1626268E169237B0A4347EA43018E
:1008F0000A43A1684FF48077B94209D0012907D093
:100900005FF0000194F814C0BCF1010F02D00AE0BE
:100910003946F7E7F3B1A36A43F02003A362E36A21
:1009200043F00103E3622368D3F804C02CF4694C5C
:100930004CEA010CC3F804C021688B68DFF870C072
:1009400003EA0C0313438B60A168B9420BD0012961
:1009500009D00CE0DFF85CC0A3690CEB43330B4318
:1009600043F40061DFE7218A0D05A5F580152168B4
:10097000CB6A23F470032B43CB62216889680E4B4A
:100980001940914208D1E662A16A21F0020141F0CA
:100990000101A162BDE8F081A06A20F0020040F0F0
:1009A0001000A062E06A40F00100E0620120F1E77F
:1009B000FDF7E1FF00E0FFFFFE0E1FFF70470000A4
:1009C00070B586B0002605460096019602960396FD
:1009D00000681E49884237D11D49886940F400707B
:1009E0008861886900F400700490886940F0040010
:1009F00088618869694600F0040004900F20009027
:100A000003200190134800F0CBFA144C1248C4E9BB
:100A100000068020C4E9026040002061800060611F
:100A20002020A061C001E061204600F0B9F908B1C2
:100A3000FFF743FE2C62002205211220656200F0C0
:100A4000D5FD122000F0C4FD06B070BD00240140A9
:100A50000010024000080140080002402C01002064
:100A60002DE9F047894604463B4900683B4F0E1D7F
:100A70009046884201D0B84207D1306810F4702FF8
:100A800003D001252846BDE8F08794F8240001280A
:100A90000CD0012084F824002046FFF751FD05000A
:100AA0004FF0000004D084F82400EBE70220EAE7CE
:100AB000A16A40F60162914341F48071A16221680C
:100AC000B94218D1326812F4702F14D0A16A41F4DF
:100AD0008011A1623168490505D5A16A21F4005150
:100AE00041F48051A162A16AC9040AD5E16A21F0EA
:100AF0000601E16206E0A26A22F48012A26249685D
:100B0000E9E7E06284F82400216A15488862216AD6
:100B10001448C862216A1448086321686FF0020013
:100B200008602068816841F48071816021684346D3
:100B30004A464C31206A00F061F920688168C1F3AF
:100B400042410729816803D041F48011816099E70F
:100B500041F4A001FAE70000002401400028014010
:100B6000CF040008370500081D05000810B590F8EF
:100B700021100022022905D00421816380F8202061
:100B8000012010BD01680B6823F00E030B600168A3
:100B90000B6823F001030B6090F84030C46B012117
:100BA00001FA03F3636080F8211080F820201046DA
:100BB00010BD000010B590F821100024022903D0C8
:100BC0000421816301243DE001680A6822F00E02DD
:100BD0000A6001680A6822F001020A601A4A016884
:100BE000914201D1012121E0174A1432914201D1F1
:100BF00010211BE0144A2832914201D1891515E0D9
:100C0000114A3C32914201D189140FE00E4A503210
:100C1000914202D14FF4803108E00B4A6432914294
:100C200002D14FF4801101E04FF08071064A083A7A
:100C30005160012180F82110002180F82010416BC3
:100C400001B18847204610BD080002402DE9F05F41
:100C5000C16B0C6801680B68D0F840C0042202FA2E
:100C60000CF2494DDFF824A1494E4A4FDFF828B174
:100C7000DFF828E122422CD05A072AD50A689206CA
:100C800003D40A6822F004020A600168A94201D173
:100C9000042219E0514501D1402215E0B14202D1B0
:100CA0004FF4806210E0B94202D14FF480420BE071
:100CB000594502D14FF4802206E0714502D14FF42C
:100CC000800201E04FF080622F4908394A60C16A12
:100CD0003BE04FF0020808FA0CF818EA040F4FF056
:100CE00000094FF0010235D05FEA837832D50B68F6
:100CF0009B0605D40B6823F00A030B6080F82120C3
:100D00000168A94201D1022219E0514501D12022F6
:100D100015E0B14202D14FF4007210E0B94202D1A5
:100D20004FF400520BE0594502D14FF4003206E077
:100D3000714502D14FF4001201E04FF000721249E8
:100D400008394A6080F82090816A00291AD0BDE8ED
:100D5000F05F0847082505FA0CF5254212D01B075D
:100D600010D50B6823F00E030B6090F84010C36B96
:100D700002FA01F15960826380F8212080F8209006
:100D8000016BE2E7BDE8F09F080002401C00024052
:100D90003000024044000240580002406C00024013
:100DA00030B528B308C8134914221944B1FBF2F135
:100DB0008900C16310498163022141771A6843F6B3
:100DC000F0718A43D0E900142143D0E902452C4355
:100DD0002143046921434469214384692143114328
:100DE000196000214163012242770177084630BD36
:100DF000012030BDF8FFFDBF0000024070B5044681
:100E000090F82000002501280CD0012084F8200053
:100E100094F821600020012E06D084F820000225DD
:100E2000284670BD022070BD022684F82160A063B0
:100E30002068066826F0010606602046FFF710FCD1
:100E4000E06A00282068016802D041F00E0106E047
:100E500021F0040101602068016841F00A0101608D
:100E60002068016841F001010160D9E770B50446CE
:100E700000F098F90546601C02D00448007804444C
:100E800000F090F9401BA042FAD370BD340000205E
:100E900070B5042818D03A4C80281BD040282CD09C
:100EA00020283DD0A515A8424DD10A20FFF7DEFF2E
:100EB0001021204600F069F92946204600F060F92B
:100EC00001285BD1B12154E02E480068BDE8704094
:100ED00003F064BB0A20FFF7C9FF1021204600F091
:100EE00054F98021204600F04BF9002846D110210A
:100EF000204600F04AF9B5213BE00A20FFF7B6FF93
:100F00001021204600F041F94021204600F038F938
:100F1000002833D10821204600F037F9B42128E019
:100F20000A20FFF7A3FF1021204600F02EF9202110
:100F3000204600F025F9002820D10821204600F0A5
:100F400024F9B32115E04FF40075A84216D10A2008
:100F5000FFF78CFF1021204600F017F929462046A4
:100F600000F00EF9012809D10821204600F00DF902
:100F7000B221BDE87040A82002F078BB70BD00002F
:100F8000000C014024000020044910B50A68024208
:100F900002D00860FFF77CFF10BD00001404014080
:100FA0002DE9F84FDFF8B8910024A9F1040B23468E
:100FB0000F2709F1040AABF1040EC9E00125A54091
:100FC0002A40AA427DD1674ED1F804C0ACEB060896
:100FD000B44532D014DCBCF1030F3AD009DCBCF1CB
:100FE000000F2AD0BCF1010F1CD0BCF1020F31D18F
:100FF0001DE0BCF1110F17D0BCF1120F2AD119E07E
:10100000B8F5881F19D006DCB8F5803F15D0B8F5C3
:10101000801F1FD111E0B8F5001F0ED0B8F5041FD6
:1010200018D10AE0CB6815E0CB681B1D12E0CB6835
:1010300008330FE0CB680C330CE08B682BB1012B2D
:101040004FF0080303D0456104E0042302E005618A
:1010500000E00023FF2A01D8064601E000F1040663
:101060004FEA840501D9A5F12005D6F8008007FADA
:1010700005FC28EA0C0803FA05F548EA0508C6F855
:1010800000804D68ED0062D5374DAE6946F001062F
:10109000AE61AD6924F0030605F001050095334DFE
:1010A00006EB050CDCF80850A607360F07FA06F821
:1010B00025EA0805DFF8B880404503D14FF0000865
:1010C00017E044E0DFF8AC80404502D14FF0010862
:1010D0000FE0DFF8A480404502D14FF0020808E09D
:1010E000DFF89880404502D14FF0030801E04FF04F
:1010F000040808FA06F848EA0508CCF808804D68A4
:10110000D9F80060ED024D4601D5164300E0964344
:101110002E604D68DAF80060AD02554601D51643E1
:1011200000E096432E604D68DBF80060AD035D463D
:1011300001D5164300E096432E604D68DEF800604E
:10114000ED03754601D5164300E096432E60641CFE
:101150000D682A46E5407FF431AFBDE8F88F000006
:10116000080401400000111000100240000001407E
:1011700000080140000C0140001001400014014033
:101180008068084000D001207047C26821EA02034D
:101190000A4043EA0241016170470AB101617047A8
:1011A0000904FBE701488068704700003400002014
:1011B00070B5040025D094F83D00002520B984F8CE
:1011C0003C50204600F050F9242084F83D0020686F
:1011D000016821F0010101602068016841F40041CB
:1011E00001602068016821F40041016000F0B4FB57
:1011F0004D4A6168914201D84C4900E04C4988420F
:1012000001D2012070BD4B492368B0FBF1F15E684B
:1012100026F03F060E435E606368934206D94FF4A2
:10122000967359434FF47A73B1FBF3F12368491C69
:101230001E6A26F03F06314319626168914210D858
:101240004900401EB0FBF1F2521CC2F30B02042A0B
:1012500001D2042022E0B0FBF1F0401CC0F30B00EF
:101260001CE0A268F2B301EBC10303EB0116431EBD
:10127000B3FBF6F35B1C43F480431B0549D092B3E8
:1012800001EBC10202EB0111401EB0FBF1F0401C6A
:10129000C0F30B0040F4804040F400402168CA696C
:1012A0004CF6FF739A431043C861D4E90710014319
:1012B0002068026822F0C00211430160D4E90301F2
:1012C00001432068826848F2FF339A4311438160EA
:1012D000D4E9050108432168CA6822F0FF021043DF
:1012E000C86001E00EE016E02068016841F00101ED
:1012F00001602564202084F83D00256384F83E5079
:10130000002070BD01EB4106431EB3FBF6F35B1CEE
:10131000B3E70120C2E701EB4101401EB0FBF1F051
:10132000401CC0F30B00B7E7A086010080841E00BC
:1013300000093D0040420F002DE9FF4F83B09A465F
:10134000DDE9119793460446DDF84080FFF72AFF58
:10135000054694F83D0020287FD1192301224049F9
:101360002046009501F0C4FC002876D194F83C009A
:10137000012872D0012084F83C0020680168C90768
:1013800003D1016841F0010101602068016821F486
:1013900000610160212084F83D00402084F83E0077
:1013A00000262664C4F82480A4F82A90608D208545
:1013B0002C48E062CDE9007553465A462046049910
:1013C00001F016FC70B930E02A463946204601F09B
:1013D00035FD58B1206C042804D12068016841F41F
:1013E00000710160012007B0BDE8F08F606A2168DC
:1013F00000780861606A401C6062218D491E89B2D4
:101400002185628D521E628522685369DB435B072A
:101410000BD469B100781061606A401C6062208D55
:10142000401E2085608D401E6085208D0028CBD118
:101430002A463946204601F02FFC0028CAD154F82C
:101440003D0B016841F400710160202004F81E0981
:10145000E67766770020C6E7FFE70220C3E70000D3
:10146000020010000000FFFF10B586B000210091BF
:101470000191029103910068104988421BD1104CE0
:10148000A06940F00800A061A069694600F008006A
:1014900004904FF4406000901220019003200390CC
:1014A0000848FFF77DFDE06940F48000E061E069F5
:1014B00000F48000049006B010BD00000058004009
:1014C00000100240000C014002488168027811447B
:1014D0008160704734000020074810B5016841F072
:1014E00010010160032000F0A1F80F2000F006F8C1
:1014F00000F04AF8002010BD0020024030B505463B
:101500001C4887B0816941F400618161806906A946
:1015100000F40060009001A800F0FEF900F02CFA41
:101520001549164AB0FBF1F11548491E02604160A9
:1015300040F2E7320021C0E903218160816100F0BF
:10154000D5FF040012D10E4800F0FEFF04000DD1BB
:10155000192000F03DF8102D07D20022294619204D
:1015600000F044F80748056000E0012407B0204679
:1015700030BD00000010024040420F00002C01402E
:1015800078020020380000200F4808B5816941F03A
:1015900001018161816901F001010091C16941F09E
:1015A0008051C161C069002200F0805000900F217D
:1015B000901E00F01BF80548416821F0E06141F001
:1015C0000071416008BD00000010024000000140B1
:1015D000002809DB00F01F02012191404009800032
:1015E00000F1E020C0F8001170470000F0B40E4B8D
:1015F0001B680C46C3F30223C3F10705042D00D971
:101600000425191D072901D2002300E0DB1E012655
:1016100006FA05F1491E214099409E40761E16406B
:101620003143F0BC02F046BC0CED00E0064900F08E
:10163000070208684FF6FF03184040EA0220034AF9
:1016400010430860704700000CED00E00000FA0550
:10165000014901200862704700000E4210B50146A2
:101660000020234C012922D0022939D010291DD174
:1016700061682268D20119D51E48C1F38342C903AB
:10168000805C0AD561681B4AC1F34041921E515CDF
:10169000194AB2FBF1F1484301E018494843616837
:1016A000490203D440000321B0FBF1F010BD226ACF
:1016B000C2F30121012903D1920701D5C80310BD4E
:1016C000022905D1626A920702D549F6404010BD51
:1016D0000329FCD121688903F9D54FF2244010BDBC
:1016E00000F04AF96168C1F38131491C4900DBE728
:1016F00000100240F876000800127A0000093D0050
:101700002DE9F84305460078354CC00754D0E06910
:101710000026C00008D4E06940F08050E061E06934
:10172000012600F0805000902E480168C90512D4AF
:101730000168804641F480710160FFF733FD074680
:1017400005E000BFFFF72EFDC01B642823D8D8F8A2
:101750000000C005F6D5206A10F4407021D0A98899
:1017600001F4407181421CD0206A1F49012220F4FB
:1017700040700A6000220A602062C00711D0FFF7A3
:1017800011FD074641F2883808E000BFFFF70AFD67
:10179000C11B414502D90320BDE8F883206A8007B8
:1017A000F4D5206A696820F44070084320621EB1B5
:1017B000E06920F08050E0612878800705D56068F6
:1017C000A96820F44040084360602878C00605D529
:1017D0006068E96820F48000084360600020DBE76F
:1017E0000010024000700040400442422DE9F047E2
:1017F0000F46050061D0434E306800F00700B84244
:1018000009D2306820F0070038433060306800F0BB
:101810000700B84251D128683B4C810712D54007D8
:1018200003D5606840F4E06060602878000703D565
:10183000606840F4605060606068A96820F0F00063
:10184000084360602878C00728D06868012810D055
:101850002168022810D0890700292EDA616821F05A
:10186000030101436160FFF79DFC804641F2883926
:101870000DE021688903EFE78901EDE7FFF792FCAE
:10188000A0EB0801494502D90320BDE8F087606854
:10189000696800F00C00B0EB810FEFD1306800F008
:1018A0000700B8420BD9306820F007003843306099
:1018B000306800F00700B84201D00120E5E7287841
:1018C000400705D56068E96820F4E060084360607F
:1018D0002878000706D56068296920F4605040EA3E
:1018E000C100606000F058F86168084AC1F3031154
:1018F000515CC8400649086006480068FFF7FEFDD5
:101900000020C2E70020024000100240CC76000810
:101910002C000020380000200F2202600C4A53687F
:1019200003F003034360536803F0F00383605368DC
:1019300003F4E063C36052684FF4E06303EAD20249
:1019400002610448006800F007000860704700006A
:101950000010024000200240044805490068496820
:10196000044AC1F30221515CC84070472C0000209A
:1019700000100240DC760008044805490068496808
:10198000044AC1F3C221515CC84070472C000020BA
:1019900000100240DC7600080E4A51680E4801F043
:1019A0000C03042B11D0082B0FD10C48C1F3834337
:1019B000C903C05C0AD55168084AC1F34041921E70
:1019C000515C054A5043B0FBF1F07047044948436D
:1019D000704700000010024000127A00E67600080E
:1019E00000093D002DE9F84F040070D02078C04D6B
:1019F000C00749D06868C0F38100012807D0686833
:101A0000C0F38100022809D16868C00306D52868A0
:101A1000800339D560680028E7D035E06068B0F50C
:101A2000803F0BD010B1B0F5A02F11D0286820F462
:101A300080302860286820F4802002E0286840F484
:101A400080302860606890B1FFF7ACFB06460AE082
:101A5000286840F480202860F0E700BFFFF7A2FB71
:101A6000801B642873D828688003F7D50CE0FFF743
:101A700099FB064605E000BFFFF794FB801B642836
:101A8000F0D828688003F7D420789A4E80074FF06A
:101A900001094FF0000839D5686810F00C0F07D025
:101AA0006868C0F38100022809D16868C00306D4C1
:101AB0002868800714D52069012808D110E0206922
:101AC000B0B1C6F80090FFF76DFB074605E00AE1EC
:101AD000FFF768FBC01B0228C4D828688007F7D529
:101AE0002868616920F0F80040EAC10028600DE034
:101AF000C6F80080FFF756FB074604E0FFF752FBED
:101B0000C01B022823D828688007F7D42078000754
:101B10002CD57948A169D9B1C0F80090FFF742FBF4
:101B2000074604E0FFF73EFBC01B02280FD8686A97
:101B30008007F7D571484FF4FA510068B0FBF1F017
:101B4000009000BF0098411E0091FAD20EE080E0A4
:101B5000C0F80080FFF726FB074604E0FFF722FBF2
:101B6000C01B022875D8686A8007F7D42078400720
:101B700060D5E8690027C00008D4E86940F08050CB
:101B8000E861E869012700F0805000905C48016836
:101B9000C90513D40168834641F480710160FFF7E1
:101BA00001FB824606E000BFFFF7FCFAA0EB0A004B
:101BB00064284ED8DBF80000C005F5D5E0680128A0
:101BC0000AD008B1052813D0286A20F00100286245
:101BD000286A20F0040002E0286A40F00100286230
:101BE000E06841F2883B98B1FFF7DCFA82460BE0EF
:101BF000286A40F004002862EEE700BFFFF7D2FA3F
:101C0000A0EB0A0159455AD8286A8007F6D50CE09E
:101C1000FFF7C8FA824605E0FFF7C4FAA0EB0A0115
:101C200059454CD8286A8007F6D41FB1E86920F0DE
:101C30008050E861E06988B36968C1F381010229D5
:101C400044D00228C6F8608004D0FFF7ABFA0446FF
:101C500038E034E0FFF7A6FA074604E0FFF7A2FAFF
:101C6000C01B02282BD828688001F7D4206AB0F561
:101C7000803F05D16868A16820F40030084368609F
:101C8000D4E908010843696821F4741108436860C5
:101C9000C6F86090FFF786FA044606E025E000BF2C
:101CA000FFF780FA001B022809D828688001F7D5C1
:101CB0001BE000BFFFF776FA001B022802D90320C1
:101CC000BDE8F88F28688001F4D40EE00128F7D031
:101CD0006868226A00F48031914204D1616A00F49C
:101CE0007010884201D00120EAE70020E8E70000F8
:101CF0000010024000004242800442422C000020BA
:101D00000070004070B5040003D0607C002610B164
:101D100005E0012070BD2674204600F03DF8022049
:101D20006074204600F00AF9042550BB204601F0FB
:101D300000FD30BB2068416821F007014160A068C8
:101D400020B11448016821F0010101601148001F11
:101D50000168A26821F46071114301606068411C50
:101D600004D10120FFF77AFC58B1401E2268C0F36D
:101D700003419160216880B2C860204601F0F4FC04
:101D800008B16574C5E7E67301206073A0736074E1
:101D9000002070BD306C004008B5006808498842DA
:101DA0000DD1FFF755FC0748C16941F00061C161E1
:101DB000C069054900F0006000900120086008BD7E
:101DC00000280040001002403C0442422DE9F0414E
:101DD0000D4604003BD0C5B3207C01283AD04FF01B
:101DE000010884F8108002206074E87872B301F072
:101DF00097FCE073687801F093FC6073A87801F0B9
:101E00008FFCA073C2B2617BE07B01F0DFFC20732A
:101E10002870204601F0CAFC4FF46161B0FBF1F17B
:101E2000002518292DD91822B1FBF2F1A1EB0111DF
:101E300001EB4101C1EB011100EBC1163146204617
:101E400001F003FD0427C8B90BE000E004E0012025
:101E5000BDE8F0810220FBE7E07368786073A87842
:101E6000CFE7204601F09BFC411C0AD0B04208D2CB
:101E700006490144204601F0D4FC10B16774257472
:101E8000E5E784F8118025740020E1E78051010026
:101E90002DE9F0410D46040024D01DB3207C01281B
:101EA00023D04FF0010884F8108002206074287855
:101EB000EAB101F035FC4FF4616100FB01F668788E
:101EC00001F02EFCC0EB001006EB8006A87801F0B4
:101ED00027FC35182946204601F0B7FC00260427C8
:101EE00010BB0FE00120BDE8F0810220FBE74FF4BA
:101EF000616148436978C1EB011100EB8100A97869
:101F00004518E7E72068416821F005014160204657
:101F100001F045FC411C0AD0A84208D20649014400
:101F2000204601F07EFC10B167742674DAE784F86D
:101F3000118026740020D6E78051010070B504009E
:101F40000AD02068416821F008014160FFF72AF9B2
:101F500005464FF47A7608E0012070BDFFF722F9BC
:101F6000401BB04201D9032070BD206840680007C3
:101F7000F4D5002070BD704738B50446006842684B
:101F80008168C9434B0606D5CB0704D1D3435B0612
:101F900001D4216C05E08B0708D4D3431B0605D47C
:101FA000616C01B02046BDE8304008478B0601D582
:101FB0004B0646D4D3439B0643D44B060AD494F82D
:101FC0005130032B3ED0636D43F004036365C36857
:101FD00083680093890609D4616D41F00101616550
:101FE00081680091016821F040010160606D002866
:101FF00027D02068416821F0E0014160012084F889
:102000005100900722D02068416821F0030141600F
:10201000104DE06C40B14563E06CFEF7CBFD18B1AC
:10202000606D40F040006065A06C002809D04563F9
:10203000A06CFEF7BFFD002803D0606D40F04000AB
:10204000606538BDC1688068009038BD2046FFF7E4
:1020500092FF38BD8D38000870B5040009D0606A61
:10206000002540B125616561A56294F8510040B139
:102070000CE0012070BD6068B0F5827FF4D0E561AE
:10208000F2E784F85050204600F040F8022084F82F
:1020900051002068016821F040010160A088218979
:1020A00000F4827001F404410843A18901F4006145
:1020B0000843217C01F002010843217D01F0010168
:1020C0000843218B01F400710843217F01F038019E
:1020D000084394F8201001F080010843218D01F499
:1020E0000051084321680860A069042101EA1040FA
:1020F000216848602068C16921F40061C16165659B
:10210000012084F85100002070BD000030B585B07A
:1021100000240094019402940394006818498842B2
:102120002BD11848816941F480518161816901F4A2
:1021300080510491816941F0040181618069124DEF
:1021400000F004000490A0200090022001900320E1
:10215000039069462846FEF723FF4020CDE900049E
:10216000694628460294FEF71BFF00220521232022
:10217000FFF73CFA2320FFF72BFA05B030BD000033
:102180000030014000100240000801402DE9F84FE6
:10219000044690F850000026984615468A460128C5
:1021A0000CD0012784F85070FEF7FCFF814694F8AC
:1021B0005100B346012804D002269AE00220BDE86F
:1021C000F88FBAF1000F6FD0002D6DD0032084F886
:1021D0005100C4F854B0C4F830A0A586E586C4F810
:1021E00038B0A4F83CB0A4F83EB0C4F844B0C4F889
:1021F00040B0A068B0F5004F09D12068016821F017
:10220000400101602068016841F48041016020685C
:102210000168490603D4016841F040010160E068AB
:10222000B0F5006F606803D058B3012D29D049E0A4
:1022300008B1012D1FD1206B21680088C86006E01D
:1022400020688168890709D5216B0988C160206BE6
:10225000801C2063E08E401EE0860CE0FEF7A2FFAB
:10226000A0EB0901414503D3B8F1FF3F03D006E0DD
:10227000B8F1000F03D0E08E0028E1D125E003265D
:1022800035E0206B21680078087306E020688168DB
:1022900089070AD5216B09780173206B401C2063E4
:1022A000E08E401EE0860DE01FE0FEF77BFFA0EB16
:1022B0000901414503D3B8F1FF3F03D0DFE7B8F18F
:1022C000000FDCD0E08E0028E0D14A46414620468F
:1022D00001F0E4FA08B120206065A06818B9206810
:1022E000C16880680090606D08B1012601E084F843
:1022F000517084F850B0304661E72DE9FF4F81B04E
:10230000044690F8500000260E9F1D4693464FF05D
:10231000010901280FD04FF0010A84F850A0FEF700
:1023200041FF804694F85100616801280DD0B1F555
:10233000827F08D103E0022005B0BDE8F08FA168DC
:1023400009B9042801D00226C9E00298002865D006
:10235000BBF1000FFBD0002DF9D094F851000428F8
:1023600002D0052084F8510000206065C4F838B020
:10237000E587A58702992163E586A58620646064C8
:1023800020680168490603D4016841F040010160FA
:10239000E068B0F5006F606803D0F0B3012D47D05E
:1023A00081E008B1012D3CD1206B21680088C86014
:1023B000206B801C2063E08E401EE08631E02068A8
:1023C000816889070FD5E18E69B1B9F1010F0AD192
:1023D000216B0988C160206B801C2063E08E401E49
:1023E000E0864FF0000920688168C9070CD0E18FB2
:1023F00051B1C068A16B0880A06B801CA063E08F06
:10240000401EE0874FF00109FEF7CCFEA0EB08006C
:10241000B84206D3781C04D001E009E05BE0032653
:102420005BE0E08E0028CAD1E08F0028C7D140E0F1
:10243000206B216800780873206B401C2063E08EBD
:10244000401EE0862FE02068816889070FD5E18E65
:1024500069B1B9F1010F0AD1216B09780173206BC1
:10246000401C2063E08E401EE0864FF0000920688B
:102470008168C9070CD0E18F51B1C068A16B0870A9
:10248000A06B401CA063E08F401EE0874FF0010965
:10249000FEF788FEA0EB0800B84202D3781C02D0F9
:1024A000BAE7002FB8D0E08E0028CCD1E08F00280A
:1024B000C9D142463946204601F0F0F918B101264B
:1024C000202060650BE0A06818B92068C1688068AA
:1024D0000090606D08B1012601E084F851A0002051
:1024E00084F85000304627E77047704710B5040065
:1024F00003D094F83D0010B107E0012010BD00208A
:1025000084F83C00204600F01EF8022084F83D00CC
:10251000211D206801F0C4FA012084F8460084F8E7
:102520003E0084F83F0084F8400084F8410084F8BD
:10253000420084F8430084F8440084F8450084F89D
:102540003D00002010BD704790F83D10012901D0DA
:1025500001207047022180F83D100168CA6842F0EE
:102560000102CA6000680B49884208D0B0F1804F70
:1025700005D00949884202D00849884204D18168BF
:1025800001F00701062903D0016841F00101016053
:1025900000207047002C014000040040000800406B
:1025A000704770B50446006801694FF00005C943E3
:1025B000890715D4C168C943890711D4E91E01618F
:1025C00001202077206880698007204602D0FFF72D
:1025D000E7FF04E000F098F8204600F096F8257731
:1025E00020680169C943490717D4C168C94349072D
:1025F00013D46FF004010161022020772068806904
:1026000010F4407F204602D0FFF7CAFF04E000F03C
:102610007BF8204600F079F8257720680169C943E6
:10262000090716D4C168C943090712D46FF008011D
:102630000161042020772068C0698007204602D00D
:10264000FFF7AEFF04E000F05FF8204600F05DF811
:10265000257720680169C943C90617D4C168C943F1
:10266000C90613D46FF0100101610820207720689B
:10267000C06910F4407F204602D0FFF791FF04E0CC
:1026800000F042F8204600F040F825772068016904
:10269000C943C90708D1C168C943C90704D1891E04
:1026A0000161204600F032F820680169C94309063B
:1026B00009D4C168C943090605D46FF080010161DE
:1026C0002046FFF711FF20680169C943490609D474
:1026D000C168C943490605D46FF040010161204635
:1026E00000F01EF820680169C94389060BD4C1684F
:1026F000C943890607D46FF0200101612046BDE877
:102700007040FFF7F2BE70BD704770470068034924
:10271000884201D1FEF7D8BE70470000002C01406E
:102720007047704770470000F8B5016804460868B4
:10273000CA684B6910F00F0F4FF0000559D003F035
:10274000010602F49077374365D0C10705D0D10563
:1027500003D5616C41F001016164410705D5D907DA
:1027600003D0616C41F002016164810705D5D9078E
:1027700003D0616C41F004016164010707D502F0E8
:102780002001314303D0616C41F008016164616C48
:1027900000293AD0800604D5900602D5204601F0E3
:1027A000E4F920684069616CC0F38010090700D427
:1027B00060B3204601F0B2F920684069400621D597
:1027C0002068143050E8001F21F0400140E800125A
:1027D000002AF5D1E06BA8B16D494163E06BFEF7CB
:1027E000E9F9002811D0E06B416B01B0BDE8F04081
:1027F000084783060FD593060DD52046BDE8F8405F
:1028000001F0B3B92046FFF78DFFF8BD2046FFF772
:1028100089FF6564F8BD266B2023012E7CD1C60696
:102820007AD5D60678D508684868009048694FF090
:102830000206400640D5E16B086840680004000CC1
:10284000E8D0A28D8242E5D9E085886920282DD084
:1028500020680C3050E8001F21F4807140E800121D
:10286000002AF5D12068143050E8001F21F0010142
:1028700040E80012002AF5D12068143050E8001F0B
:1028800021F0400140E80012002AF5D184F84230DE
:10289000256320680C3050E8001F21F0100140E84B
:1028A0000012002AF5D1E06BFEF760F96663A08D97
:1028B000E18D401A81B22AE0A08DE18D401A81B2EB
:1028C000E08D0028A6D00029A4D022680C3252E85E
:1028D000000F20F4907042E80007002FF5D1206827
:1028E000143050E8002F22F0010240E80027002FAA
:1028F000F5D184F84230256320680C3050E8002F71
:1029000022F0100240E80023002BF5D16663204638
:10291000FFF707FFF8BDFFE705062BD5150629D5FC
:1029200094F841002128F5D1A068B0F5805F01D16D
:102930002069B0B1206A411C21622168007848609A
:10294000E08C401E0004000CE084E3D12068C168E4
:1029500021F08001C1602068C16841F04001C16080
:10296000D8E7206A0088C0F308004860206A801C0D
:102970002062E5E74006CDD55006CBD5CA68204693
:1029800022F04002CA6084F8413000F00CF9C1E73F
:102990000D3B000870B5040004D094F841000025F8
:1029A00010B106E0012070BD84F84050204600F0D0
:1029B00023F8242084F841002068C16821F40051E4
:1029C000C160204601F032F92068016921F490418C
:1029D00001612068416921F02A0141612068C168D4
:1029E00041F40051C1606564202084F8410084F8FE
:1029F00042006563002070BD30B585B000240094AE
:102A00000194029403940068184988422CD1184814
:102A1000816941F480418161816901F480410491BF
:102A2000816941F0040181618069124D00F0040068
:102A300004904FF400700090022001900320039056
:102A400069462846FEF7ACFA2815CDE90004694628
:102A500028460294FEF7A4FA002205212520FEF75D
:102A6000C5FD2520FEF7B4FD05B030BD003801409E
:102A7000001002400008014090F84230202B01D0A5
:102A80000220704721B11AB10023036301F02AB973
:102A90000120704770B500681849884223D1184C4E
:102AA000608801041FD42146420409784FF00005D4
:102AB0000DD50A2916D140F400406080C0F30D0204
:102AC0004FF47A730F49104800F020F80AE00D29FE
:102AD00010D0C0F30D020B4B401C80B299546080A3
:102AE000C72800D96580BDE8704001220449064826
:102AF000FFF7C2BF40F480406080F4E70038014037
:102B000030000020C0020020300200202DE9F843F0
:102B1000044690F841001F4616460D46202802D074
:102B20000220BDE8F8837DB176B1002060642120E9
:102B300084F84100FEF736FBA6848046E684A06850
:102B4000B0F5805F02D003E00120EAE7206910B110
:102B50002E4600250EE000260CE08021204601F0E4
:102B6000DCF8A0B9AEB116F8010B21684860E08C22
:102B7000401EE084E08C43464FF00002009700289E
:102B8000EBD14FF04001204601F0C7F830B10320EF
:102B9000C7E735F8020BC0F30800E6E7202084F809
:102BA00041000020BDE77047FEE710B500F0C0FC13
:102BB00000F034FB01F096FABDE8104001F0EAB8ED
:102BC00001684A69D24352050FD46FF480624A61AA
:102BD000002140F8301F202242738173026942F0C5
:102BE0000402026101730120704700207047000059
:102BF0002DE9F843044600680D46DDE908970168B1
:102C00009846164641F4807101604B4600224FF011
:102C100001112046009700F06BF848B12068006869
:102C2000C00502D54FF4007020640320BDE8F8838E
:102C3000216805F0FE0008613B464A4615492046DA
:102C400000F09EF888B920684169806900903A4692
:102C50004946204600F0F2F848B1206C042804D11F
:102C60002068016841F4007101600120DEE7F5B2DF
:102C7000B8F1010F09D02168300A08613A46494687
:102C8000204600F0DBF80028E7D12068056100202D
:102C9000CCE700000200010070B516460D46044660
:102CA0001EE02046FFF78CFF08B1012070BD681CB4
:102CB00016D0FEF777FA801BA84200D885B92068A5
:102CC0004069C04340070BD5002044F8300F202155
:102CD0006173A073216941F0200121612073E4E751
:102CE00020684069C0434007DBD4002070BD00006D
:102CF0002DE9F047984617460D460446C1F30746AE
:102D0000DDF820902AE000BFB8F1FF3F26D0FEF7A3
:102D100049FAA0EB0901414502D8B8F1000F1DD1D5
:102D20002068012E16D0806925EA00000004000CFE
:102D300012D00020B84211D1002044F8300F2021D9
:102D40006173A073216941F020012161207301208A
:102D5000BDE8F0874069E7E70120EBE72068012E36
:102D60000AD0806925EA00000004000C06D000208B
:102D7000B842C9D00020EBE74069F3E70120F7E74C
:102D80002DE9F047984616460D4604464FF00009D7
:102D90004FF0200AC1F3074723E020684069C04391
:102DA000400515D42068016841F400710160216874
:102DB0006FF480604861C4F8309084F83DA084F8D6
:102DC0003E90216C41F00401216484F83C9021E0A4
:102DD000701C06D0FEF7E6F9A0EB0800B04203D85D
:102DE00016B1012F1FD021E02068012F15D0806976
:102DF00025EA00000004000C18D000BF44F8309F02
:102E000084F80DA084F80E90216941F02001216121
:102E100084F80C900120BDE8F087406925EA0000A5
:102E20000004000CEAD12068406901E02068806954
:102E300025EA00000004000CAFD1ECE770B516469F
:102E40000D4604461EE02046FFF7BAFE08B10120F9
:102E500070BD681C16D0FEF7A5F9801BA84200D8EB
:102E600085B920684069C04300060BD5002044F8AE
:102E7000300F20216173A073216941F0200121618D
:102E80002073E4E720684069C0430006DBD40020DB
:102E900070BD00003EB500241048009401940294D7
:102EA0000D498460016004730475012505614FF4C8
:102EB00060214460C161FDF7F3FC08B1FDF7FDFB43
:102EC000CDE90045694605480294FDF7F9FB002865
:102ED00001D0FDF7F2FB3EBD00240140FC000020C4
:102EE000094808B5416941F001014161406900228A
:102EF00000F00100009005210B20FEF777FBBDE8F4
:102F000008400B20FEF764BB0010024010B5012101
:102F1000134A084601F0EAFA124C114A0C212061CA
:102F2000183A0A2001F02EFA0D4AE060843A002196
:102F30000D4801F06BFB0A4A2060603A00210B4803
:102F400001F064FB064A60603C3A0021084801F049
:102F50005DFBA0600248103001F042F9606110BDD5
:102F6000AC76000814000020A93900087338000866
:102F7000470600082DE9F04186B00024314800944E
:102F8000019402940394816941F010018161816987
:102F900001F010010491816941F020018161816992
:102FA00001F020010491816941F00401816181698E
:102FB00001F004010491816941F008018161806997
:102FC000214F00F008004FF40055049000222946DC
:102FD0003846FEF7E2F8DFF8748000221B214046F5
:102FE000FEF7DBF80095022601250396CDE9015492
:102FF00069463846FDF7D4FF1B20CDE90005CDE931
:10300000024669464046FDF7CBFF4FF479700090C9
:103010000F48CDE9010469464046FDF7C1FF002293
:1030200005210820FEF7E2FA0820FEF7D1FA002277
:1030300005211720FEF7DAFA1720FEF7C9FA06B0C5
:10304000BDE8F0810010024000100140000C01407A
:10305000000011100D4810B50B4901600C4941608A
:1030600000214FF480428160C0E903124161816117
:10307000C1610162FEF79CF8002803D0BDE8104052
:10308000FDF71BBB10BD0000005800407001002080
:10309000A08601001CB5002418480194164900942C
:1030A0000160174941604FF480718160FEF72AFE8C
:1030B00008B1FDF702FB8DF804408DF805408DF84E
:1030C0000640002201A90D48FEF7E2FE08B1FDF717
:1030D000F4FA01208DF800008DF801008DF802004F
:1030E0008DF80340002269460448FEF76FFE002871
:1030F00001D0FDF7E2FA1CBD00280040C401002009
:10310000FFFF0F00104810B50E4901604FF48271A7
:10311000416000218160C1604FF400720161C0E92B
:1031200005121022C0E90721416281620A21C162B1
:10313000FEF792FF002803D0BDE81040FDF7BDBAAE
:1031400010BD000000300140D80100200C4810B52F
:103150000A4901604FF4E1314160002181600C2295
:10316000C160C0E904128161C161FFF713FC00284E
:1031700003D0BDE81040FDF7A0BA10BD00380140F3
:103180003002002070B50C4C206801F0ADFA0B4DF8
:10319000286801F0A9FA01F009FF0021082308A21C
:1031A000084600F023FA206801F082FA2868BDE89A
:1031B000704001F07DBA0000180000201C000020C3
:1031C000507265706172652077656C6C000000005C
:1031D000FEE7FEE71CB50FA10522D1E90001CDE90C
:1031E00000016946302000F047F9052269461020A9
:1031F00000F082F8002069460A5CA52A03D1401C31
:10320000C0B20528F8D3052801D001201CBD00203C
:103210001CBD0000A5A5A5A5A5000000234810B56C
:103220000068016841F04001016002E06420FDF7A0
:103230001DFEFFF7CFFF0028F8D11D4C012202210F
:103240002046FDF7AAFF002201212046FDF7A5FF39
:1032500005221849302000F00FF916490522491DB2
:103260002A2000F009F90121212000F027F901218D
:10327000222000F023F92821252000F01FF90F213A
:10328000262000F01BF92021312000F017F91A2127
:10329000242000F013F90E21202000F00FF9204621
:1032A0000122BDE810401146FDF777BFD80100208C
:1032B000000C0140566C000810B50E4C0022012194
:1032C0002046FDF76AFF0F21202000F0F7F87E214D
:1032D000272000F0F3F8FF21E22000F0EFF8FF21B3
:1032E000E12000F0EBF820460122BDE81040114635
:1032F000FDF753BF000C0140F7B582B0FF20114F1E
:1033000015460E468DF80400002202213846FDF7CE
:1033100044FF6423012202A90B48FEF737FF04464D
:103320004FF47A7000902B46324601A90648FEF70A
:10333000E4FF012202213846FDF72FFF05B02046A9
:10334000F0BD0000000C0140D801002011B583B091
:10335000FF200F4C8DF80800002202212046FDF7C7
:103360001CFF6423012203A90A48FEF70FFF642013
:103370000090012301AA02A90648FEF7BEFF012220
:1033800002212046FDF709FF9DF8040004B010BD9E
:10339000000C0140D801002070B505460E484FF4DE
:1033A0007A71006801F068F80720FFF7CFFF044644
:1033B0000146272000F082F860060AD5202229461F
:1033C0006120FFF799FFFF21E22000F077F800204D
:1033D00070BD012070BD00002400002010B50C4C11
:1033E000002201212046FDF7D8FE0E21202000F00A
:1033F00065F8FF21E22000F061F8FF21E12000F0F4
:103400005DF820460122BDE810401146FDF7C5BE1B
:10341000000C014070B5164D0446002201212846DB
:10342000FDF7BBFE20222146A02000F025F8012256
:1034300011462846FDF7B1FE0E484FF47A71006838
:1034400001F01AF80720FFF781FF04460146272004
:1034500000F034F8E00605D5FF21E12000F02EF859
:10346000012070BDA00601D5002070BD022070BDF6
:10347000000C014024000020F7B50E4D16460F4603
:10348000002202212846FDF788FE642301226946B6
:103490000948FEF77BFE04464FF47A7332463946FC
:1034A0000548FEF773FE012202212846FDF775FE4E
:1034B0002046FEBD000C0140D801002073B50D4D23
:1034C000002202212846FDF768FE64230122694696
:1034D0000948FEF75BFE04466423012201A9064861
:1034E000FEF754FE012202212846FDF756FE204633
:1034F0007CBD0000000C0140D801002070B5002404
:1035000004F1B000C0B200F08DF8002000F08AF89D
:10351000102000F087F80025002000F095F86D1CC1
:10352000EDB2802DF8D3641CE4B2082CE8D370BD52
:1035300010B5C820FDF79AFCBDE8104000F094BC1F
:1035400010B50446B031C8B200F06CF8102040EA63
:10355000141000F067F804F00F00BDE8104000F010
:1035600061B800002DE9F041203A00240D46804664
:10357000D6B27F2803D900208D1C8046EDB2102BD7
:1035800029460FD0FFF7DCFF164906EB460001EB9A
:103590004005285D00F058F8641CE4B2062CF8D30E
:1035A000BDE8F081FFF7CCFF0F4F00BF04EB061022
:1035B000385C00F049F8641CE4B2082CF6D36D1CAA
:1035C000E9B24046FFF7BCFF5FF0000404EB0610D1
:1035D0003844007A00F038F8641CE4B2082CF5D3C3
:1035E000DEE70000606C0008886E00082DE9F041FD
:1035F000984617460E46044600250DE043463146E0
:103600002046FFF7AFFF0834E4B2782C02D900243B
:10361000B61CF6B26D1CEDB27A5D002AEED1BDE8A3
:10362000F081000001B584B001214FF4807204A83C
:103630008DE807000B46002278210248FDF77CFE4A
:1036400005B000BD7001002001B584B001214FF428
:10365000807204A88DE807000B46402278210248BA
:10366000FDF76AFE05B000BD700100202DE9F041B4
:10367000254D2A78C82A01D3002200E0521C234C91
:103680002A70A12804D0A82832D0A22830D031E056
:103690001E4E20706170103E1D49F06803F068F9FD
:1036A0001C4902F0ADFF03F0F7F81B4F608039466C
:1036B000306802F0A5FFDFF86480414603F058F956
:1036C00003F0CEF8A0803946706802F099FF4146B9
:1036D00003F04EF903F0C4F8E0803946B06802F018
:1036E0008FFF414603F044F903F0BAF8208101E06E
:1036F000207061702878A072A520E072BDE8F041CA
:10370000024801F063BC00000E000020E000002031
:103710000000204100007A440000FA430000C84243
:10372000010901EB810100F00F0000EB4100C0B284
:10373000704770B50446FDF735FD05464FF47A76BF
:1037400006E0FDF72FFD401BB04201D9032070BDFC
:10375000206840688006F4D52068416841F0100177
:103760004160002070BD000070B5044600684168EB
:1037700021F010014160FDF715FD05464FF47A7602
:1037800007E000BFFDF70EFD401BB04201D903204A
:1037900070BD206840688006F4D5002070BD0168C7
:1037A000086A496A89B241EA004070470068816945
:1037B0008AB2C1698BB2816989B28A4203D0C06979
:1037C00061F31F40704743EA02407047F0B564243C
:1037D000C1EBC1030927A500072603EB0113032949
:1037E000B3FBF7F100F5FA60114401440AD2401E20
:1037F000B0FBF4F201EB9001B0FBF5F0891A08443C
:10380000001D08E0B0FBF4F201EB9001B0FBF5F015
:10381000891A0844801CB0FBF6F106FB1100C0B207
:10382000F0BD70B50D4606460024FFF782FF48B98B
:103830003168280C08623168A8B248623046FFF748
:1038400093FF00B10124204670BD70B50D460646B9
:103850000024FFF76EFF48B93168280C8861316891
:10386000A8B2C8613046FFF77FFF00B101242046AF
:1038700070BD01F0CDFB0A2000F06CFCF9E7000000
:103880000148FEF779BB0000D801002010B5406A5E
:103890000021C187C186FEF76EFB10BD38B50B460F
:1038A000009204460022802100F008F8002804D08D
:1038B000606D40F020006065032038BD2DE9F843BD
:1038C0001E46914688460446089DFDF76BFC401B4A
:1038D000351AFDF767FC074625480068C0F3CB3072
:1038E000684338E0701C37D0FDF75CFCC01BA84271
:1038F00003D215B1009860B32CE02068416821F034
:10390000E00141606068B0F5827F0BD1A068B0F53E
:10391000004F02D0B0F5806F04D12068016821F01B
:1039200040010160A06AB0F5005F09D1206801681C
:1039300021F4005101602068016841F400510160E8
:10394000012084F85100002084F850000320BDE8D5
:10395000F8830025401E00902068816838EA010045
:1039600004D000214945BDD10020F0E70121F9E74D
:103970002C0000200A4810B5A2210170A521C172B7
:10398000FFF748FD08B1012010BD0648012100687D
:1039900000F048FC4FF4FA7000F0DCFB002010BD92
:1039A000C400002028000020FFF7ECFB0A4E0B4C5F
:1039B0004FF400554FF47A7729463046FDF7E5FB82
:1039C00010212046FDF7E1FB08212046FDF7DDFB35
:1039D000384600F0BFFBEFE700100140000C01404B
:1039E00010B5502080F31188BFF34F8FBFF36F8F56
:1039F00002F014FC18B104494FF080500860002018
:103A000080F3118810BD000004ED00E030B593B0E4
:103A100028216846FCF7A3FC14210AA8FCF79FFCA8
:103A200000240F9409200121109400901194129405
:103A30004FF4803004910691CDE901040225CDE9CF
:103A400007504FF4E01009906846FDF7CBFF08B12E
:103A500072B6FEE70F20CDE90A054FF48060CDE98C
:103A60000C4002210AA80E94FDF7C0FE08B172B600
:103A7000FEE703200F904FF40070CDE910040FA86B
:103A8000FDF73EFE002801D072B6FEE713B030BD50
:103A9000704700000148FEF784BD00007802002056
:103AA000F0B50268164B174C174D4FF080479842FF
:103AB00005D0B84203D0A04201D0A84203D122F0E1
:103AC00070064A683243984205D0B84203D0A042FB
:103AD00001D0A84203D122F44074CA6822434C6941
:103AE00022F08002224302608A68C2620A6882620F
:103AF000984201D10969016301214161F0BD0000D3
:103B0000002C0140000400400008004010B5406A4D
:103B10000021C185C184FEF705FE10BD01680C318E
:103B200051E8002F22F4907241E80023002BF5D1D8
:103B30000168143151E8002F22F0010241E800230E
:103B4000002BF5D1016B012909D101680C3151E835
:103B5000002F22F0100241E80023002BF5D1202194
:103B600080F8421000210163704708B590F84210B8
:103B7000222901D0022008BD82684FF480539A4266
:103B800001D1016921B1816A9A421BD04AB10AE090
:103B90000268816A5268C2F308020A80816A891C3D
:103BA00008E0026972B10268526802F07F020A708E
:103BB000816A491C8162C18D491E0904090CC185B5
:103BC00003D01BE002685268F1E70168CA6822F07E
:103BD0002002CA600168CA6822F48072CA60016863
:103BE0004A6922F001024A61202180F84210002136
:103BF0004163026B012A03D0FEF74CFF002008BD91
:103C0000016301680C3151E8002F22F0100241E8F5
:103C10000023002BF5D101680A68D20602D50A6894
:103C200049680091818DFEF77CFDE7E770B5044699
:103C300000680169E26821F4405111430161216982
:103C4000A0680843616908432168CA6841F20C63AF
:103C50009A430243CA6020684169A26921F4407115
:103C6000114341611E492068884202D1FDF784FE5C
:103C700001E0FDF771FE00EBC00101EB001260688E
:103C800064218000B2FBF0F3B3FBF1F36FF0180690
:103C90007343B2FBF0F5B2FBF0F605EB830532237C
:103CA00003EB0515B5FBF1F5B6FBF1F605F0F005F4
:103CB00005EB0615B2FBF0F6B2FBF0F0B0FBF1F04D
:103CC0006FF01802504306EB800003EB0010B0FBCE
:103CD000F1F0216800F00F002844886070BD0000FA
:103CE0000038014081628285C28500214164222121
:103CF00080F84210016921B10168CA6842F48072FB
:103D0000CA6001684A6942F001024A610068C168FC
:103D100041F02001C160002070472DE9F041984634
:103D200017460E460446069D27E0681C25D02DB197
:103D3000FDF738FAA0EB0800A8421ED920680C3025
:103D400050E8001F21F4D07140E80012002AF5D19C
:103D50002068143050E8001F21F0010140E80012F3
:103D6000002AF5D1202084F8410084F84200002088
:103D700084F840000320BDE8F0812068006836EA3E
:103D8000000004D00020B842CFD00020F3E701208B
:103D9000F9E7000010B5FFF7B1FB082309A20721DE
:103DA0001420FFF723FC08230AA202210020FFF7BA
:103DB0001DFC08230621BDE8104009A20020FFF7E2
:103DC00015BC00007465737432312E31302E3133DE
:103DD00000000000496E6974204F76657200000093
:103DE0002D2D2D2D2D2D2D2D2D2D2D2D2D2D2D2D03
:103DF000000000000148FEF797BC000030020020E0
:103E0000FEE7000010B51648FFF7C6FA08B1042017
:103E100010BD13490878AA2804D0BB280AD0CC28A2
:103E20000DD00FE0C87AA5280CD1642000F092F9DB
:103E3000012010BDC87AA52804D1022010BDC87A7F
:103E4000A52801D0032010BD06481021006800F00D
:103E5000E9F94FF4FA7000F07DF9002010BD000080
:103E6000B80000202800002000B58BB01C2209A15A
:103E700003A8FCF73AFA4FF480721B2103A88DE8DF
:103E800007000123002278210948FDF755FA0BB0FD
:103E900000BD0000AE001040B081FFA1A6A83FC841
:103EA000D300D580D805D9F1DA12D8308D14AF00FF
:103EB000700100200907090E002804DB00F1E02052
:103EC00080F80014704700F00F0000F1E02080F847
:103ED000141D7047FEE700002DE9F0412348FCF770
:103EE0006DFB224D224E3146E86802F041FDA5F1FE
:103EF0001C04314602F084FB1E4A1F49E06000F0BA
:103F0000FBF81E4EE0603146286802F031FD1C4F80
:103F100032463946206000F0EFF82060314668688C
:103F200002F026FD32463946606000F0E5F8606038
:103F3000A868144D294602F01BFD2A461249A060CC
:103F400000F0DAF8A060012000F040F80F4C60703B
:103F5000012000F081F8A0706178BDE8F04140EAEE
:103F60000110C1B2A120FFF781BB0000EC000020CE
:103F7000000048420000BE420000C841000020414D
:103F8000000020C100003442000034C20E000020B6
:103F9000002801DB024600E042428A4201DA0020AA
:103FA0007047002802DDA0EB010001E0F8DA0844C8
:103FB00000B2704704494A88C2800A880280CA88D1
:103FC0004280898881807047020000207CB50446C9
:103FD00000236846FFF7EEFF1E4801214FF42F66CD
:103FE0004FF496650CB1017001E002780AB3BDF898
:103FF00006200024B24201D901230CE0AA420AD2D1
:10400000BDF804200823B24201D90A230CE0AA42D9
:1040100001D20C2308E0BDF80420B24201D90223EA
:1040200002E0AA4202D20423047010E004706BB1D3
:104030000DE0BDF80620A2F59662B2F5C86F06D86D
:10404000BDF80420AA4202D3B24200D8017018463B
:104050007CBD0000000000207CB5044600236846BB
:10406000FFF7A8FF1E4801214FF42F664FF4966515
:104070000CB1417001E042780AB3BDF8022000247F
:10408000B24201D901230CE0AA420AD2BDF80020B5
:104090000823B24201D90A230CE0AA4201D20C2320
:1040A00008E0BDF80020B24201D9022302E0AA4292
:1040B00002D20423447010E044706BB10DE0BDF8EF
:1040C0000220A2F59662B2F5C86F06D8BDF80020AE
:1040D000AA4202D3B24200D8417018467CBD00000B
:1040E00000000020042202490248FCF7B9BC00008D
:1040F00002000020FC00002070B50E461546044664
:10410000114602F001FD01D22C4605E03146204661
:1041100002F0FAFB00D23446204670BDFDF7DCF910
:10412000FFF774FCFEF726FFFEF7DAFEFEF7B2FE9D
:10413000FEF790FFFEF7AEFFFEF7E4FFFFF706F88D
:10414000FEF733FD00F0A4F8FEF7E0FE00F0BCF847
:10415000FEE7000010B5EFF3058149B9EFF31081D8
:1041600031B908490968022905D1EFF3118111B16C
:104170006FF0050403E0002408B101F0E1F82046E7
:1041800010BD00009000002070B50E46050002D062
:10419000300E002802D06FF003041CE0EFF305801E
:1041A00048B9EFF3108030B90C48006802280ED1EE
:1041B000EFF3118058B1284601F000FB0446314668
:1041C000284601F0CFFA30B96FF0020403E0284628
:1041D00001F0A8FA0446204670BD000090000020BF
:1041E00010B54FF00001EFF30582BAB9EFF310827A
:1041F000A2B90B4A1268022A02D1EFF311826AB9FE
:1042000048B1D0E902202AB1202807D3104601F096
:10421000BFFA02E010B901F0ADFA0146084610BD40
:104220009000002038B50C4610B1210E002902D0B4
:104230006FF0030038BDEFF3058149B9EFF310814A
:1042400031B911490968022919D1EFF31181B1B1CE
:10425000002100916A46214601F004FB10B16FF085
:10426000020038BD009920460029FAD0074A4FF0D5
:1042700080511160BFF34F8FBFF36F8F38BD214660
:1042800001F0A9FA38BD00009000002004ED00E024
:10429000EFF3058058B9EFF3108040B90949086879
:1042A000022801D030B109E0EFF3118030B16FF096
:1042B0000500704701200860002070474FF0FF3074
:1042C000704700009000002010B5EFF3058060B942
:1042D000EFF3108048B90B490868022802D0012882
:1042E00006D00BE0EFF3118040B16FF0050010BD78
:1042F0000220086001F04AF9002010BD4FF0FF30A5
:1043000010BD000090000020F8B51D466FF00302BC
:104310006FF002064FF00004EFF305834BB9EFF3A3
:10432000108333B9154B1B68022B17D1EFF31183A0
:10433000A3B1F0B1E9B1E5B9002200926A4601F0FB
:10434000BDFD012817D10098B0B10D494FF0805044
:104350000860BFF34F8FBFF36F8F0DE048B141B1DD
:104360002A4601F00FFD012806D025B16FF00104A7
:1043700002E0144600E034462046F8BD90000020DC
:1043800004ED00E0F8B514464FF00005EFF30582A8
:104390006ABBEFF3108252BB164A1268022A02D19E
:1043A000EFF311821ABB10B309B3ACB1D4E90232F6
:1043B0006BB1502A1BD32269CAB1676900FB01F6B1
:1043C000B74214D30025009501F009FB07E072B94C
:1043D000226962B9626952B9002201F0DCFA050073
:1043E00005D00CB1216800E0002100F047FF28460D
:1043F000F8BD000090000020F8B51D466FF00302E4
:104400006FF002064FF00004EFF305834BB9EFF3B2
:10441000108333B9164B1B68022B18D1EFF31183AD
:10442000ABB100B3F9B1F5B90022134600926A4668
:1044300001F0FCFB012818D10098B8B10D494FF0EC
:1044400080500860BFF34F8FBFF36F8F0EE050B105
:1044500049B100232A4601F039FB012806D025B1D5
:104460006FF0010402E0144600E034462046F8BD37
:104470009000002004ED00E0F8B50D460024211F57
:104480004E1C00280ED000BFEFF305824AB9EFF3AF
:10449000108232B9134A1268022A17D1EFF311823F
:1044A000A2B10DB10C461BE000216A46009101F05B
:1044B00005FD012813D1009890B10B494FF08050B1
:1044C0000860BFF34F8FBFF36F8F09E0294601F0FB
:1044D00043FD012804D015B16FF0010400E034461B
:1044E0002046F8BD9000002004ED00E0F8B5144629
:1044F00003460E464FF00005EFF30580E8BBEFF3EF
:104500001080D0BB24480068022802D1EFF311804C
:1045100098BB93B39E423DD84CB1A0680028E06898
:1045200003D0502836D3012002E008B132E0002049
:10453000012B05D010B31846A26801F00CFA20E058
:1045400040B103200090002211460120A36801F031
:1045500046FA04E003220021012001F01CFA0500C4
:1045600018D086B100231A46194601F0AFFA012887
:1045700009D0284600F096FE00250BE0184601F011
:10458000CDF9050006D00CB1216800E000212846D5
:1045900000F074FE2846F8BD9000002038B50024D5
:1045A000E51E002804D000BFEFF3058169B902E0E1
:1045B0006FF0030423E0EFF3108131B9114909686A
:1045C000022914D1EFF3118189B1002100916946CC
:1045D00001F08AFB012811D1009880B10A494FF0FF
:1045E00080500860BFF34F8FBFF36F8F07E0002349
:1045F0001A46194601F06AFA012800D02C462046D6
:1046000038BD00009000002004ED00E0F0B585B05A
:104610004FEA01034FF00004EFF305810394A1BBBF
:10462000EFF3108189BB21490968022902D1EFF318
:10463000118151BB48B3802618218DF8104004AD7C
:1046400042B3176807B13D4697691FB139467F1ECF
:10465000382F02D21779FF0702D0002005B0F0BD35
:10466000576907B1BE08D2F808C0BCF1000F0DD0E1
:10467000D4685C2C18D312693AB137B18DE80610B2
:104680003246294601F08BFD03900DE0D7685FB9F3
:1046900012694AB903AACDE90012B2B2294601F063
:1046A00051FD012800D003940398D7E79000002023
:1046B00010B5EFF3058149B9EFF3108131B909491C
:1046C0000968022905D1EFF3118111B16FF00504DA
:1046D00003E020B1002400F01BFF204610BD6FF066
:1046E0000304FAE79000002010B5EFF3058149B903
:1046F000EFF3108131B909490968022905D1EFF3B7
:10470000118111B16FF0050403E020B1002400F025
:1047100081FF204610BD6FF00304FAE790000020EF
:104720002DE9F041134C0F46054666692068001DCF
:1047300000F0A6FC681C07D137B12168BDE8F04144
:104740000D48091D00F0F0BC20683544B5424560B5
:10475000216805D2A068BDE8F041091D00F0CCBC7D
:104760006068091D00F0C8FC206B854200D22563FB
:10477000BDE8F08140000020780800202DE9F041DC
:10478000054600F0DDFC2D4C2069401C20612068AE
:104790002B4F10B1E06930B32BE025602069012870
:1047A00027D1002606EB860007EB800000F096FC80
:1047B000761C382EF6D3234800F090FC21481430A4
:1047C00000F08CFC1F48283000F088FC1D483C306D
:1047D00000F084FC1B48503000F080FC19486060F9
:1047E0001430A06005E02068E96AC06A884200D8F9
:1047F0002560E06A401CE0626864E86AA16988425A
:1048000000D9A06100EB800007EB8000291D00F0BB
:104810008BFC00F0B5FCE06900280CD02068E96A48
:10482000C06A884207D208494FF080500860BFF341
:104830004F8FBFF36F8FBDE8F08100004000002074
:10484000C80300202808002004ED00E038B500F07F
:1048500077FC104CA068C8B90F4800F03FFC0E4828
:10486000143000F03BFC0C482060143060600A4BB0
:1048700000202833009003F1500210210A2001F09B
:10488000AEF8A06010B105A100F0F8FCBDE838401A
:1048900000F076BC7C0000208C080020546D725122
:1048A0000000000030B4026C0B46002A0BD0C16837
:1048B0001144C1604468A14201D30168C16030BCA9
:1048C0001846FBF7CDBC30BC70472DE9F041856B35
:1048D000174604460026026C82B1C7B1E068FBF7B8
:1048E000BFFCE168206C091AE1602268914202D2A3
:1048F0006168081AE060022F16D017E02068A8B996
:10490000606801F0EFFC0646002060600EE0A068E1
:10491000FBF7A6FC216CA0680844A060616888428F
:1049200004D32068A06001E005B16D1E6D1CA56375
:104930003046BDE8F08110B5044690F8590058B1F2
:1049400001280CD002280FD0502080F31188BFF32B
:104950004F8FBFF36F8FFEE7206B00F025FC2046E2
:10496000BDE8104000F020BC10BD000010484FF41E
:104970004061420706D0C01D0D4920F00700411AD2
:10498000C1F540610B4A00230144C2E90003083924
:10499000103A21F0070111604B600B600B1AC0E95F
:1049A000001393604FF000405360D06070470000E8
:1049B0005C100020A4000020144E154CA6F29C4769
:1049C0004FF08058DFF84C9012E000BF00F0B8FBC9
:1049D000F068C568281D00F053FB2069401E206167
:1049E000E068401EE06000F0CBFB2846FFF7A3FF25
:1049F000E0680028EAD138680128F9D9C9F80080B0
:104A0000BFF34F8FBFF36F8FF2E700006408002001
:104A10004000002004ED00E070B51D46049C51B13B
:104A2000C4F80020C4E90F010121204601F00AF872
:104A300084F84C5070BD2460F4E72DE9F0470E4631
:104A4000DDE909841746824691009946089DA52212
:104A5000206BFBF77CFC6FF00301206B01EB8701FF
:104A6000084420F00707780707D0502080F311880A
:104A7000BFF34F8FBFF36F8FFEE72218315C82F8D0
:104A80003410315C11B1401C1028F6D3002684F894
:104A90004360382D00D33725E562C4E91356201D45
:104AA00000F027FB04F1180000F023FB2461C5F19E
:104AB00038006462A061666584F858604A465146D1
:104AC000384600F061FA2060B8F1000F01D0C8F854
:104AD0000040BDE8F087000030B5114900E0114604
:104AE0000A688242FBD34B685C18844203D1406859
:104AF00018444860084643681C18944209D1084C81
:104B0000103C2468A24209D052681A4442600A68E4
:104B100012680260814200D0086030BD0460F9E78D
:104B2000A400002070B5002441600B4D006191424B
:104B300006D8D11A8269914206D2011D686807E041
:104B40009A4203D2994201D3012403E0011D28684F
:104B500000F0D2FA204670BD7C00002010B504465B
:104B600000F0EEFAA06B28B15FF0000400F008FB43
:104B7000204610BD0124F9E730B589B0304D55E02D
:104B80000498002806DADDE90601059A90470498A2
:104B900000284BDB069C606910B1201D00F070FA04
:104BA00002A800F0B9F8024604980A283ED2DFE8CD
:104BB00000F00505053D263705053D260598A16948
:104BC000034601442046FFF7ADFF00B3616A20466B
:104BD0008847E069012829D1002000900598A16943
:104BE000002342181946204601F0C2FC78B9502033
:104BF00080F31188BFF34F8FBFF36F8FFEE70598E7
:104C0000A06128B1811813462046FFF78BFF0DE005
:104C1000502080F31188BFF34F8FBFF36F8FFEE7F3
:104C200094F82C0010B9204600F0BEFA002204A926
:104C3000A86801F0A7F80028A2D109B030BD000093
:104C40007C0000202DE9FC410F46054600F030FDB8
:104C500001A800F061F80446019818B101F0F6FBD4
:104C6000BDE8FC81224EAFB170680068A8B3002790
:104C7000291B3A46B06800F041FB01F0E7FB002831
:104C8000EED11C494FF080500860BFF34F8FBFF347
:104C90006F8FE5E7A542EBD801F0D8FB30682746D7
:104CA000C068C468201D00F0EBF9E069012810D14C
:104CB000A0692B4641193A462046FFF733FF40B121
:104CC00000200346014600902A46204601F050FC91
:104CD00020B1616A20468847C2E707E0502080F390
:104CE0001188BFF34F8FBFF36F8FFEE70127BFE738
:104CF0007C00002004ED00E006484168096829B105
:104D00004168C968C9684968016370474FF0FF315D
:104D1000FAE700004000002070B5054601F078FA7F
:104D2000064E04463069844203D200F009F801209F
:104D300000E0002028602046346170BD7C00002027
:104D4000F8B5194D1FE0C068C4680668201D00F062
:104D500097F9616A20468847E069012813D1A06964
:104D60003044B04206D924616060211D286800F0FB
:104D7000C3F908E000200346014600903246204671
:104D800001F0F6FB38B1286801680029DBD16968B9
:104D9000C5E90010F8BD502080F31188BFF34F8F94
:104DA000BFF36F8FFEE700007C00002008484068DA
:104DB000401C4FF0500080F3118804D0BFF34F8F98
:104DC000BFF36F8FFEE7BFF34F8FBFF36F8FFEE729
:104DD000AC000020002150B10A4B42699A420FD129
:104DE000806AA3F1280290420AD040B108E0502026
:104DF00080F31188BFF34F8FBFF36F8FFEE7012160
:104E00000846704778080020074C2068016841B1C7
:104E1000C0680021D0F80000FFF714FFFFF7ACFED8
:104E2000F3E701210020F7E77C0000202DE9F041A5
:104E3000044600F085F994F9455004F1240609E090
:104E4000606A48B1304601F0C9FA08B100F0A6FA2C
:104E50006D1E6DB2002DF3DC4FF0FF3684F8456017
:104E600000F08EF900F06CF994F9445004F1100749
:104E700009E0206948B1384601F0B0FA08B100F005
:104E80008DFA6D1E6DB2002DF3DC84F84460BDE830
:104E9000F04100F075B900002DE9F041054600270A
:104EA00000F006FC314E306808B9FFF75FFDF0688E
:104EB00005424BD1C5B3083568070ED005F0070091
:104EC000C0F108000544680707D0502080F311881E
:104ED000BFF34F8FBFF36F8FFEE72DB3706885422E
:104EE00034D82248103001460C6801E020460C46B8
:104EF0006168A94202D221680029F7D131688C4249
:104F000024D007682168016060680837411B1029B8
:104F10000FD96019420708D0502080F31188BFF3E1
:104F20004F8FBFF36F8FFEE710E041606560FFF7C2
:104F3000D3FD61687068401A7060B268904200D218
:104F4000B060F06801430020C4E9000101F07EFA7E
:104F5000780707D0502080F31188BFF34F8FBFF33D
:104F60006F8FFEE73846BDE8F08100009400002016
:104F70000449086818B10868026D521C0265086887
:104F8000704700004000002010B5031F4FF08074F0
:104F90001C601B1F21F001011960191F024B0B60DF
:104FA000143940380A6010BDAD4D00082DE910409D
:104FB000FEF7E0FC0028FBD1FEF77EF9FEF722FFAA
:104FC0000028FBD1BDE81040FEF708BA10B5040078
:104FD00004D19A2206A10CA0FEF77CFF0B482146C3
:104FE0004FF0FF330068BDE810400122FFF704BA1C
:104FF0002E2E5C436F72655C5372635C72616469F0
:105000006F6C696E6B2E6300700000002000002042
:1050100070B51748FEF7FEF9164C002578B1A07858
:10502000401CA0702078401CC0B220700A2813D900
:105030001148257001210068FFF7A6F80CE00F4821
:105040000A2300220A490068FFF75EF920B10848E8
:10505000A3210170A521C1726078401CC0B26070AC
:10506000642803D9A078E070A570657070BD000059
:10507000C40000200A00002028000020200000209A
:10508000D0E9013201699A60D0E901235A604A6887
:10509000824201D182684A60002202610868401E93
:1050A0000860086870470000034B036003F15C0070
:1050B0000860802010607047A4090020044B036042
:1050C00003F15C0008604FF48070106070470000CE
:1050D000000C002000F026BB00F07DBB00F10801B1
:1050E0004FF0FF32C0E90112C1600161002101608F
:1050F000704700210161704730B50B685A1C02D01F
:1051000000F1080202E0026904E0224654682568C2
:105110009D42FAD953684B6099608A60516008617A
:105120000168491C016030BD42684A6093688B6029
:1051300093685960916008610168491C016070477B
:10514000502080F31188BFF34F8FBFF36F8F0A4950
:105150004868401C486001280CD10848006810F0DD
:10516000FF0F07D0502080F31188BFF34F8FBFF39C
:105170006F8FFEE770470000AC00002004ED00E0F8
:105180000849486828B1401E486001D180F3118861
:105190007047502080F31188BFF34F8FBFF36F8F9C
:1051A000FEE70000AC00002070B5002827D0144DA9
:1051B000A0F108046168E868014207D1502080F33B
:1051C0001188BFF34F8FBFF36F8FFEE722683AB1AC
:1051D000502080F31188BFF34F8FBFF36F8FFEE72E
:1051E0008143616000F064FA60686968084468603F
:1051F0002046FFF771FCBDE8704001F027B970BD93
:10520000940000204FF0E0200021016181610549F8
:105210004FF47A720968B1FBF2F1491E416107212E
:10522000016170472C00002010B5FAF7F5FF114915
:1052300010280ED300F1E02090F8F0030A78904295
:1052400007D2502080F31188BFF34F8FBFF36F8FC9
:10525000FEE709480068896800F4E060884207D9E1
:10526000502080F31188BFF34F8FBFF36F8FFEE79D
:1052700010BD0000AC0000200CED00E010B5084BA4
:10528000002200BF53F832401CB1521C082AF9D347
:1052900010BD43F8321003EBC201486010BD00009E
:1052A0008803002010B504000AD000F013F894F829
:1052B000460000280CD12046BDE81040FFF774BF1F
:1052C000502080F31188BFF34F8FBFF36F8FFEE73D
:1052D00010BD0000084A002102EBC1035B68834255
:1052E00006D1002042F8310002EBC101486070474E
:1052F000491C0829F0D370478803002070B5154673
:105300000E460446FFF71CFF94F944100020491C88
:1053100001D184F8440094F94510491C01D184F866
:105320004500FFF72DFFA06B28B92A46314604F14E
:10533000240000F051F82046BDE87040FFF776BD2C
:1053400010B5020014D00F48806B38B1502080F3A4
:105350001188BFF34F8FBFF36F8FFEE700F0A8F9FE
:1053600000211046FFF7DCF901F070F8002807D1A2
:1053700005494FF080500860BFF34F8FBFF36F8F28
:1053800010BD00004000002004ED00E002498A6AE0
:1053900002604969416070474000002001490120D6
:1053A000486270474000002010B50C4650B10949D2
:1053B00009681831FFF7A0FE2046BDE81040012122
:1053C000FFF7AEB9502080F31188BFF34F8FBFF3C2
:1053D0006F8FFEE74000002070B514460D4668B19F
:1053E0000A4909681831FFF79FFE0CB14FF0FF35ED
:1053F00021462846BDE87040FFF792B9502080F35F
:105400001188BFF34F8FBFF36F8FFEE7400000207E
:1054100070B504003ED0226DA2B1E06C884200D38A
:105420000146E06A884235D0012A33D11A4D2A68F4
:1054300094420FD1502080F31188BFF34F8FBFF3F8
:105440006F8FFEE7502080F31188BFF34F8FBFF3BB
:105450006F8FFEE7E162A269002A02DBC1F1380129
:10546000A1610E4E00EB8000616906EB8000814275
:1054700010D1201DFFF704FEE06AA969884200D917
:10548000A86100EB800006EB8000211DBDE87040A4
:10549000FFF74ABE70BD000040000020C803002096
:1054A00070B5194DAA6BF2B141F000410160C468BA
:1054B0000CB3FFF7E5FD201DFFF7E2FDE06AA969E7
:1054C000884200D9A861114900EB800001EB8000FF
:1054D000211DFFF729FEE06A2968C96A884201D9BF
:1054E0000120686270BD502080F31188BFF34F8F98
:1054F000BFF36F8FFEE7502080F31188BFF34F8F0B
:10550000BFF36F8FFEE7000040000020C8030020BB
:1055100070B504002AD01A4D286884422ED0FFF7B7
:105520000FFE2046FFF756FCE0B1201DFFF7A8FD57
:10553000E06AA969884200D9A861124900EB80009D
:1055400001EB8000211DFFF7EFFDE06A2968C96AC1
:10555000884207D30C494FF080500860BFF34F8F4B
:10556000BFF36F8FBDE87040FFF70ABE502080F395
:105570001188BFF34F8FBFF36F8FFEE770BD000040
:1055800040000020C803002004ED00E030B587B0E3
:105590000024039405AA04A903A80494FFF784FD3A
:1055A000DDE903010094CDE90110002315A117489E
:1055B000059A00F0F4FD164D002868631FD000F036
:1055C000A7FF012809D0401C19D1502080F3118871
:1055D000BFF34F8FBFF36F8FFEE7502080F311882A
:1055E000BFF34F8FBFF36F8F4FF0FF302863012061
:1055F000E8616C6107B0BDE8304000F03BB907B02E
:1056000030BD000049444C4500000000B949000885
:105610004000002070B50446FFF792FD214D04B90B
:105620002C68201DFFF72CFDA06A18B104F11800AA
:10563000FFF726FD211D1C48FFF776FD94F8580062
:105640000026012801D184F85860FFF799FDE86928
:1056500028B1FFF775FDFFF74FFBFFF791FD2868B5
:10566000844213D1E86990B1A86B38B1502080F31F
:105670001188BFF34F8FBFF36F8FFEE70B494FF0D9
:1056800080500860BFF34F8FBFF36F8F70BD064827
:1056900000682969884201D12E6070BDBDE8704064
:1056A00000F00EB8400000207808002004ED00E073
:1056B0000248816B491C8163704700004000002054
:1056C000164810B5816B11B10121416210BD002156
:1056D00041628169124A01E0B9B1491E01EB8103BF
:1056E00052F82330002BF7D001EB810302EB830249
:1056F00002F1080453685B685360A34201D15B6800
:105700005360DA680260816110BD502080F3118817
:10571000BFF34F8FBFF36F8FFEE700004000002004
:10572000C803002070B50E46040009D0300E0FD01B
:10573000502080F31188BFF34F8FBFF36F8FFEE7C8
:10574000502080F31188BFF34F8FBFF36F8FFEE7B8
:10575000FFF7F6FC256825EA06002060FFF710FD3C
:10576000284670BD0A4601460023014800F034BFB8
:10577000D550000870B52020FFF78EFB040005D03F
:105780000025201D2560FFF7A9FC2577204670BD68
:1057900038B558B120210446002000912060201D1A
:1057A000FFF79CFC01202077204638BD502080F375
:1057B0001188BFF34F8FBFF36F8FFEE75022EFF3D7
:1057C000118182F31188BFF34F8FBFF36F8F006891
:1057D00081F3118870472DE9F041002788460400C5
:1057E0000AD05FEA18600FD0502080F31188BFF311
:1057F0004F8FBFF36F8FFEE7502080F31188BFF308
:105800004F8FBFF36F8FFEE7261D04F10C05FFF7E6
:105810004FFF2168F06841EA0801216017E0D0E9F4
:10582000001601F07F425301236821F07F4102D42A
:105830000B4203D10AE031EA030307D1D20100D5BC
:105840000F43216841F00071FFF72AFE3046A8425D
:10585000E5D12068B843206000F0F8FD2068BDE87D
:10586000F081000013460A460146014800F0B4BE2C
:10587000D95000081CB5264908780190FF2008700F
:1058800008788DF800009DF800009DF8002000F0D9
:10589000F000904207D0502080F31188BFF34F8F63
:1058A000BFF36F8FFEE79DF800001A4B00F0500029
:1058B00018700720986005E09DF8002052008DF8D0
:1058C0000020401E9DF800201206F5D498600328A1
:1058D00007D0502080F31188BFF34F8FBFF36F8F35
:1058E000FEE74FF440709860019808700A4801681C
:1058F00041F470010160016841F070410160FFF7FF
:1059000081FC00205860FAF751FC00201CBD00000B
:1059100000E400E0AC00002020ED00E010B50C46F3
:1059200048B184420FD9502080F31188BFF34F8FC4
:10593000BFF36F8FFEE7502080F31188BFF34F8FC6
:10594000BFF36F8FFEE70222002100F024F8002849
:1059500000D0846310BD38B50C4648B184420FD9DD
:10596000502080F31188BFF34F8FBFF36F8FFEE796
:10597000502080F31188BFF34F8FBFF36F8FFEE786
:105980000221134600220091114600F028F8002859
:1059900000D0846338BDF8B517460E46050014D014
:1059A000DEB105FB06F05030FFF776FA04000AD0AE
:1059B000002084F8460004F150023B463146284658
:1059C0000094FFF729F82046F8BD502080F3118895
:1059D000BFF34F8FBFF36F8FFEE70020E3E738B5CB
:1059E000049D18B153B1CAB181B120E0502080F3B9
:1059F0001188BFF34F8FBFF36F8FFEE7502080F306
:105A00001188BFF34F8FBFF36F8FFEE7502080F3F5
:105A10001188BFF34F8FBFF36F8FFEE739B150206E
:105A200080F31188BFF34F8FBFF36F8FFEE75024D1
:105A30001C46012384F846302B460094FEF7ECFF09
:105A4000204638BD70B50D46040025D0FFF778FB21
:105A5000D4E90F20216802FB001161600021A163DD
:105A60002168A1600A46D4E90F01401E00FB012114
:105A7000E16021464FF0FF3001F8440F487004F117
:105A800010008DB1FFF72AFB04F12400FFF726FB7D
:105A9000FFF776FB012070BD502080F31188BFF323
:105AA0004F8FBFF36F8FFEE721690029F0D000F020
:105AB00095FC0028ECD004494FF080500860BFF3FB
:105AC0004F8FBFF36F8FE3E704ED00E02DE9FF4751
:105AD00082B01D468A464FF00008040003D0BAF198
