:020000040800F2
:10000000D8530020010300080D490008C33500083B
:1000100065480008E5130008B1550008000000001D
:100020000000000000000000000000004102000885
:1000300055150008000000009D0200087D500008D2
:100040001B0300081B0300081B0300081B03000818
:100050001B0300081B0300081B0300081B03000808
:10006000691500081B0300081B0300081B03000898
:100070001B0300081B0300081B0300081B030008E8
:100080001B0300081B0300081B0300081B030008D8
:100090001B0300081B0300081B0300081B030008C8
:1000A0001B030008415100081B0300081B03000844
:1000B0001B0300084D5100081B030008FD36000813
:1000C000F13600081B0300081B0300082D4F000831
:1000D0001B0300081B0300081B0300081B03000888
:1000E0001B0300081B0300081B0300081B03000878
:1000F0001B0300081B0300081B0300081B03000868
:100100001B0300081B0300081B0300081B03000857
:100110001B0300081B0300081B0300081B03000847
:100120001B0300081B0300081B0300081B03000837
:100130001B0300081B0300081B0300081B03000827
:100140001B0300081B0300081B0300081B03000817
:100150001B0300081B0300081B0300081B03000807
:100160001B0300081B0300081B0300081B030008F7
:100170001B0300081B0300081B030008000000000D
:100180001B0300081B03000800F002F800F049F808
:100190000AA090E8000C82448344AAF10107DA45E2
:1001A00001D100F03EF8AFF2090EBAE80F0013F0EB
:1001B000010F18BFFB1A43F0010318470CBD0000E4
:1001C0002CBD0000103A24BF78C878C1FAD8520775
:1001D00024BF30C830C144BF04680C6070470000C1
:1001E0000023002400250026103A28BF78C1FBD840
:1001F000520728BF30C148BF0B607047642900F028
:100200004781002070471FB50AF0F5FE9DE8030006
:1002100000F0B2FD00F0A2FB1FBD10B500F007FC1E
:1002200010BD00F06FFC1146FFF7EDFF06F037FF41
:1002300000F074FD03B4FFF7F0FF03BC00F02EFFE5
:100240002C4B19680868B0E8F04F80F30988BFF3B9
:100250006F8F4FF0000080F311887047000000009E
:1002600008480068006880F308884FF0000080F3B9
:10027000148862B661B6BFF34F8FBFF36F8F00DF94
:1002800000BF00BF08ED00E0DFF80C00016841F49A
:1002900070010160704700BF88ED00E0EFF3098056
:1002A000BFF36F8F134B1A681EF0100F08BF20EDBD
:1002B000108A20E9F04F106009B44FF0500080F32D
:1002C0001188BFF34F8FBFF36F8F09F001F94FF023
:1002D000000080F3118809BC19680868B0E8F04F85
:1002E0001EF0100F08BFB0EC108A80F30988BFF32E
:1002F0006F8F70477C000020EFF30580704700008F
:100300000948804709480047FEE7FEE7FEE7FEE7A9
:10031000FEE7FEE7FEE7FEE7FEE7FEE704480549E5
:10032000054A064B7047000031510008890100085A
:10033000D84D0020D8530020D84F0020D84F00209F
:1003400053EA020C00F069802DE9F04B4FF00006F3
:10035000002B1FBFB3FA83F503FA05F424FA05F660
:100360005E4012BF1643B2FA82F502FA05F4C5F1F7
:1003700020051EBF22FA05FC44EA0C04203556EA8B
:10038000044C4FEA144418BF641C4FF000084FF0AF
:100390000009904271EB030C39D3002919BFB1FA5F
:1003A00081F701FA07F6B0FA80F700FA07F6C7F10D
:1003B00020071EBF20FA07FC46EA0C062037B6FBD2
:1003C000F4FCA7EB0507103F07F01F0BCBF120064D
:1003D0000CFA0BFB2CFA06F644BFB3460026202F7E
:1003E000A4BF5E464FF0000B5BEA060C08BF4FF05F
:1003F000010B19EB0B09ABFB027C48EB0608C01B99
:1004000006FB02CC0BFB03CC71EB0C01C1E70B46E6
:10041000024641464846BDE8F08B13B54FF0000058
:100420004FF00001AFF30080BDE81C40704710B5ED
:100430004C1084EA530404D54042C1F1000138BF96
:10044000491E1B4204D55242C3F1000338BF5B1E54
:10045000FFF776FF14F0804F04D04042C1F1000155
:1004600038BF491E14F0004F04D05242C3F10003BC
:1004700038BF5B1E10BD00000FB4044910B503AABD
:10048000029800F0E5F910BC5DF814FBD04C002098
:100490002DE9F0410646002410687529314616A55D
:1004A00010D0AFF30080002802DA404213A507E025
:1004B00031688A0701D512A502E0490704D511A5C4
:1004C000012401E0AFF3008000210A2206F1240795
:1004D00009E0B0FBF2FCB0FBF2F302FB1C00303091
:1004E00078541846491C0028F3D123462A46304642
:1004F000BDE8F04100F052B9000000002D000000FE
:100500002B000000200000002DE9F05F8946044622
:100510004FF0000ADFF824B1FB44C0F820A02046C9
:10052000E168884700287DD0252806D0D4E901213C
:100530009047206A401C2062F1E700255F46204674
:10054000E16888472028064607DB312E05D2B81916
:1005500010F8200C08B10543F1E7A80701D525F0F4
:100560000405C4F81CA00027C4F818A02A2E09D03E
:10057000304605F085FD38B304EB8708303EC8F8F7
:10058000186019E059F8041B204604EB87029161BA
:10059000E1688847012F064618D1E069002820DA73
:1005A00025F020051DE0D8F8180000EB800006EBD0
:1005B00040003038C8F818002046E16888470646F1
:1005C00005F05EFD0028EED1012F0AD02E2E08D1B5
:1005D0002046E16888477F1C0646022F45F020052B
:1005E000C4DBA069002803DA404245F00105A061A0
:1005F000E80701D025F01005A6B1A6F141001928A1
:1006000002D8203645F400654A463146204625602A
:100610004D46FFF7F3FD60B1012807D0ED1D25F031
:10062000070000E007E000F1080978E705F1040998
:1006300075E730467AE7206ABDE8F09FFEB7000014
:1006400040EA010310B59B070FD1042A0DD310C84F
:1006500008C9121F9C42F8D020BA19BA884201D9A1
:10066000012010BD4FF0FF3010BD1AB1D30703D0E9
:10067000521C07E0002010BD10F8013B11F8014B9F
:100680001B1B07D110F8013B11F8014B1B1B01D1BB
:10069000921EF1D1184610BD032A40F2308010F0AE
:1006A000030C00F0158011F8013BBCF1020F62440D
:1006B00098BF11F801CB00F8013B38BF11F8013B9E
:1006C000A2F1040298BF00F801CB38BF00F8013B4B
:1006D00011F0030300F0CE80083AC0F0088051F812
:1006E000043B083A51F804CBA0E80810F5E7121DC6
:1006F0005CBF51F8043B40F8043BAFF30080D207E5
:1007000024BF11F8013B11F801CB48BF11F8012BB0
:1007100024BF00F8013B00F801CB48BF00F8012BD3
:10072000704702F0FF0343EA032242EA024200F06C
:10073000D5B84FF0000200B51346944696462039CE
:1007400022BFA0E80C50A0E80C50B1F12001BFF48A
:10075000F7AF090728BFA0E80C5048BF0CC05DF8F0
:1007600004EB890028BF40F8042B08BF704748BF3E
:1007700020F8022B11F0804F18BF00F8012B7047B2
:1007800070477047704710B500F0C8F8006810BD9A
:1007900010B5044600F0C2F8046010BD2DE9F04722
:1007A0000D4699469246044600F1240801688806E1
:1007B00004D5E06921F01001216000E00120A84289
:1007C00001DD471B00E00027A1697A1902EB09004F
:1007D000081AA0612078C00602D42046AFF300803A
:1007E000002608E0D4E901211AF806009047206AA3
:1007F000401C761C20624E45F4DB2078C0060AD5EA
:100800002046AFF3008006E0D4E901213020904774
:10081000206A401C2062381EA7F10107F4DC07E0C3
:10082000D4E9012118F805009047206A401C206295
:10083000281EA5F10105F3DC2046AFF300802078E7
:10084000000602D50220BDE8F0870120FBE700008A
:10085000074B70B50D467B4400F069F80446284606
:1008600000F078F810B14FF0FF3070BD204670BD39
:10087000FF62000010B5203AC0F00B80B1E81850BC
:10088000203AA0E81850B1E81850A0E81850BFF47A
:10089000F5AF5FEA027C24BFB1E81850A0E8185019
:1008A00044BF18C918C0BDE810405FEA827C24BF6D
:1008B00051F8043B40F8043B08BF7047D20728BFFB
:1008C00031F8023B48BF11F8012B28BF20F8023B4A
:1008D00048BF00F8012B70474FF000020429C0F018
:1008E000128010F0030C3FF426AFCCF1040CBCF1E5
:1008F000020F18BF00F8012BA8BF20F8022BA1EBB4
:100900000C01FFF718BF5FEAC17C24BF00F8012B80
:1009100000F8012B48BF00F8012B704700487047D2
:10092000784D002001694A1C02610878704700B5C3
:100930008FB0CDE901310021059105497944CDE918
:10094000031011466846FFF7DFFD0FB000BD000041
:10095000E5FFFFFF007B00F08000704710B54248C4
:100960005421FFF7E6FE41485421FFF7E2FE4048DC
:100970005421FFF7DEFE3F493B483C4A3F4B0860AD
:100980003D490A603A491960531C0365481C1065CB
:10099000012008653B48344A39A1784400F022F927
:1009A00020B9384878440A3800F0C1F937482F4A4E
:1009B00035A1784400F016F920B9344878440A3853
:1009C00000F0B5F932482A4A2FA1784400F00AF91C
:1009D00020B92F4878440A3800F0A9F9402322486A
:1009E000DC000021224600F0D9F820B125487844E7
:1009F000543800F09CF91D4822464023002100F0A5
:100A0000CDF820B121487844543800F090F91848C6
:100A100022461023002100F0C1F8002806D01C480F
:100A20007844BDE81040563800F081B910BD104838
:100A300070B5006D20F001040B4800F049F90B4837
:100A400000F046F90A4800F043F909E0206D20F073
:100A50000105204600F03CF9204600F078F82C46CD
:100A6000002CF3D170BD00007C4C0020D04C002045
:100A7000244D0020FC000020000100200401002083
:100A80007200000082B40000770000006EB4000025
:100A90005AB400000EB5CDE9000100F0DFFA029073
:100AA00069460120ABBE0EBD08B569460090022024
:100AB000ABBE08BD1FB58DE8070069460520ABBE7B
:100AC00004B010BD1FB58DE80F0069460620ABBE0F
:100AD000F6E708B5694600900920ABBE08BD1CB515
:100AE000CDE9000169460A20ABBE1CBD704708B5C0
:100AF000694600900C20ABBE08BD0000004870475E
:100B0000784D00207546FFF7F9FFAE4605006946AF
:100B1000534620F00700854618B020B5FFF7FEFBCE
:100B2000BDE820404FF000064FF000074FF00008EE
:100B30004FF0000B21F00701AC46ACE8C009ACE86F
:100B4000C009ACE8C009ACE8C0098D46704770B573
:100B50000446051F00F0F4F80068002C14BF446838
:100B600070BD002C18BFAC423CBF20466468F8D36F
:100B700001680A18AA4218BF456003D12A680546D1
:100B80001144016028684119A1421CBF6C6070BD0E
:100B90006168696021680844286070BD70B5C468E8
:100BA000A50713D0650211D4B2F5807F09D0B2F544
:100BB000007F06D0B2F5806F08D1012300F1240137
:100BC00006E05D1E6FF07F46B54201D3012070BD87
:100BD0000161C361416024F470611143C160002070
:100BE00070BD00002DE9F0410C4607461646104640
:100BF00000F06EF82078611C61280AD0722802D0BB
:100C000077283CD102E00125002405E002250424D8
:100C100002E0082448F2020511F8010B2B2806D047
:100C2000622809D011F8010C74280AD00BE045F0B5
:100C3000030544F00204EFE745F0040544F0010425
:100C4000EAE744F0100438462146FFF723FF411C31
:100C500015D00021316171604FF40071F560F161D0
:100C60007061200704D530460222002100F0E2F82E
:100C7000306D40F0010030653046BDE8F081002065
:100C8000FBE72DE9F0410D460646104C206DC107EB
:100C900004D0410804D020F00104F7E722460EE01A
:100CA000542000F098F807000ED0206D47F00101A5
:100CB0000843542120653846FFF73BFD3A46294654
:100CC0003046BDE8F0418DE70020D6E77C4C00209F
:100CD0002DE9F04704464FF000094FF0FF37C56893
:100CE000D4E90486A80707D0204600F053F930461F
:100CF000FFF7DAFE002802DA3846BDE8F08728055B
:100D000002D54046FFF723FF4C212046FFF711FD97
:100D1000206D20F0010020654846EEE710B504463E
:100D2000AFF300802046BDE81040FFF783BA10B54E
:100D300000F07AF9BDE8104000F070B9704700008B
:100D400000487047804D00207047704770477047DB
:100D500038B504460A4600206946AFF300800028F3
:100D600008BF38BD02460099204600F0A4F90120D2
:100D700038BD012000F0F3B9F8B5AFF300800546A7
:100D800000200C46102000BF0646A819A0420DD92D
:100D9000324669460020AFF30080070008BF00F02C
:100DA000DEF90098A04218BF0546C419FFF7C8FF36
:100DB00005600746F01D20F007004619284600F0A0
:100DC00073F9B44208BFF8BDA21B31463868BDE8CC
:100DD000F84000F070B970B50646FFF7B1FF05683E
:100DE00006F10B0020F00704B4429CBF002070BD48
:100DF0002B466A68BAB11068A04210D304F108010A
:100E000088423CBF5068586007D351681019416050
:100E10001168091B016058601460101D70BD1346F5
:100E20005268002AE7D121462846FFF791FF0028A3
:100E3000DED170BD2DE9F041044616460D464769E6
:100E4000007B80072ED03846FFF743FE50BB3EB3F1
:100E5000012E02D0022E25D104E0204600F045F9F3
:100E600005441DE03846FFF742FEE168002841F0E6
:100E70001001E16005DA204600F058F80120BDE8D5
:100E8000F081C9030BD56268E16A914200D811462E
:100E9000A26911442269891A814200DD084605448D
:100EA000002D01DA0220EAE7E16A6068E268814227
:100EB00006D29103E06203D522F4003141F0100222
:100EC000A6690027AE4213DCE16A814201D90B46D4
:100ED00000E0034603EB060C2369ACEB030CAC45C6
:100EE00006DD814201D98C4600E084469C4505D14F
:100EF000A760276042F02000A5620DE0AD1BE66907
:100F0000AE1B8142A66000D90846C01A281A20608C
:100F10005819606022F0200003490840E06000207A
:100F200084F84870ABE70000BFCFD7FFC16821F459
:100F3000001141F08001C1600021816001607047B3
:100F40002DE9F047814614460E464FF0FF383248EF
:100F5000D5685769054209D03846A169FFF7BFFD3A
:100F6000002811DB2C48C0430540E5602B46324683
:100F700049463846FFF79EFDA16920F00042B21AAB
:100F800011440028A16103D02046FFF7CFFF40465F
:100F9000BDE8F08770B504460569C06A616888429B
:100FA00000D80846E16821F42011E160C90312D598
:100FB000A84208D02246411B2846FFF7C1FF10B1C6
:100FC0004FF0FF3070BD0020E562C4E90150E068D9
:100FD00020F48030E060002070BD10B50446C06889
:100FE00020F02000E060A16AA06988420DD0204670
:100FF000FFF7D0FFE06820F4405040F01000E060C0
:10100000A06AA0612069E062606044F24001E0688B
:101010008843E06010BD000010000200002801D0ED
:1010200000F03CB87047000010B5014602A000F087
:101030007DF8012010BD00005349475254524544E9
:101040003A2052656469726563743A2063616E2761
:1010500074206F70656E3A200000000010B5431CCC
:1010600002E010F8011B71B18107FAD14FF0013293
:1010700002C88C1A8C4314EAC211F9D0C01A0A06AD
:1010800003D0C01E10BDC01A10BD0A0401D0801EBE
:1010900010BD0902FCD0401E10BD000001491820FF
:1010A000ABBEFEE72600020000210160C0E901108E
:1010B000704710207047034640688C46002818BFD0
:1010C00088423CBF03464068F8D3186818448842F9
:1010D00007D00CF1030020F00700001D411A521A3E
:1010E0000146081D0A60FFF732BD10B50146C2680F
:1010F000900703D0900607D5886A0AE0FFF70EFC38
:1011000001210160881E10BD8B69486818440B6975
:10111000C01A91F848301BB191F84910401A10BD1F
:101120001103FCD50028FADD401E10BD70B5054640
:101130000C460A2000E06D1C00F018F835B1287844
:101140000028F8D102E0641C00F010F814B12078F7
:101150000028F8D1BDE870400A2000F007B810B5AB
:1011600000F00CF8BDE81040FFF758BF08B569461D
:101170008DF800000320ABBE08BD000010B50128AB
:1011800005D0002103A0FFF7D1FF012010BD09A168
:10119000F8E7000053494752544D454D3A204F75EA
:1011A00074206F662068656170206D656D6F72795F
:1011B000000000003A2048656170206D656D6F7217
:1011C0007920636F727275707465640070B503F096
:1011D0004FFE0D4A111F081F00F0CBF90A4D143DB8
:1011E00005F10804084922461439281D05F09AFF24
:1011F0000028F7D10449BDE870400839034AA1F13D
:101200000C0000F0F1B80000400200204402002071
:1012100010B51CA0FFF730F92048006806F0A6FEC4
:1012200040070FD5CC2005F026FFCC2005F023FF8A
:10123000CC2005F020FF03F0AFFB19A0FFF71CF94D
:10124000002010BDAA2005F016FF194C2078401C84
:1012500020704FF4FA7006F05DFE2078322804D03A
:1012600014A0FFF709F9012010BDBB2005F003FF12
:10127000642006F04FFE0020207013A0FFF7FCF85A
:10128000022010BD656E74657220616972207465FC
:10129000737473656C660D0A000000001400002072
:1012A000546573745F5265735F4F4B0D0A00000005
:1012B00020000020546573745F5265735F496E6946
:1012C00074696E670D0A0000546573745F5265732C
:1012D0005F4572726F720D0A0000000070B5344DE8
:1012E000286806F043FE334C334EC107606050D08F
:1012F00080072FD531A0FFF7BFF82079C00612D59F
:10130000306806F0E5FFC0B22070032802D13068D3
:1013100007F03FF80421286806F04AFEBDE8704057
:10132000642006F0F7BD306807F033F8306806F047
:10133000CFFFC0B220700328F5D01021286806F036
:1013400037FE60600421286806F032FE6060000409
:10135000F3D470BD03F096FA0028FBD100F0FBF83F
:1013600001221C4ED4022146304600F094FA4FF47C
:101370007A7000F04BF900222146304600F08BFADB
:1013800015A0FFF779F82868BDE87040022106F043
:101390000FBE03F099FA306807F00BF810212868A7
:1013A00006F0C5FD2868BDE87040042106F0BFBD09
:1013B000140000201800002008000020434F4E5465
:1013C000524F4C5F5441534B5F466C6167207365CD
:1013D000740D0A00000002404D6F746F7220537448
:1013E00061727400FEE7000070B592ED030A0446D6
:1013F0001546B0EEC00A10EE100A0E46B0F1814F4D
:1014000003DA9FED510A85ED030AD4ED010A95ED4B
:10141000020A4E4803F0C4FC4C48D4ED000A95ED96
:10142000010A2C3803F0BCFC96ED010AF2EE060A24
:10143000464870EE200A90ED070A843003F0B0FCB5
:101440004248D6ED000A2C3890ED070A843003F0AC
:10145000A7FCD4ED020A95ED030A04F0CBF83B4853
:1014600085ED030AD4ED020A2C3003F099FC28889C
:1014700040F27E41364C884258D900EE100A33487B
:101480005830B8EE400AD0ED070A2C3030EE601A22
:1014900090ED070A583871EE001A90ED071A71EEB8
:1014A000811AFCEEE11A11EE900A80B220802988A0
:1014B00001EE901AF8EE611A71EEA01A71EE801A20
:1014C00071EEC11AFCEEE11A11EE901A61802988C2
:1014D00001EE901AF8EE611A71EEA01A71EEC01AC0
:1014E00071EE811AFCEEE11A11EE901AA1802988A2
:1014F00001EE901AF8EE611A71EEE00A30EEC00AC1
:1015000030EE410ABCEEC00A10EE101AE18007F07E
:10151000AEFC2080608807F0AAFC6080A08807F0FD
:10152000A6FCA080E08807F0A2FC04E040F2DE30D8
:1015300020806080A080E08081B2A38862882088BB
:10154000BDE8704003F090B9000000007C0100206D
:1015500022000020704710B502F0D3FFBDE8104014
:101560004FF47A7000F052B8042000F083B872B6DD
:10157000FEE7FEB514460D46064602AA01A96846D6
:1015800002F0C6FFBDF800004FF4FA6110FB01F352
:10159000D81703EB5040C01300EE100AB8EEC00A93
:1015A00086ED000ABDF8040010FB01F0C11700EB46
:1015B0005140C01300EE100A4FF4FA61B8EEC00AB1
:1015C00085ED000ABDF8080010FB01F0C11700EB23
:1015D0005140C01300EE100AB8EEC00A84ED000AB4
:1015E000FEBD90F83510022903D08021416501200D
:1015F0007047052180F835100068016821F001016D
:1016000001600020704790F83500704770B50446BF
:1016100000F046F90546601C02D0044800780444F6
:1016200000F03EF9401BA042FAD370BD6C000020D0
:1016300010B5012807D0042814D10B480068BDE874
:10164000104006F019BE0A20FFF7E0FF012107480D
:1016500000F014F9012805D14103BDE81040044809
:1016600000F011B910BD0000100000200000024081
:1016700000080240044910B50A68024202D008601E
:10168000FFF7D6FF10BD0000143C01402DE9F84FD4
:10169000DFF8BCA10022012503264FF00F090AF153
:1016A000040BAAF1040E00BF0B6805FA02F42340F4
:1016B000A34270D10F7907F00307012F01D0022F49
:1016C00016D187684FEA420806FA08FC27EA0C0799
:1016D000D1F80CC00CFA08FC4CEA070CC0F808C0A2
:1016E0004768A7430C79C4F3001494403C4344601A
:1016F0000C79E443A4070AD0C4684FEA420C06FA06
:101700000CF7BC438F6807FA0CF72743C7600C79C6
:1017100004F00304022C12D1D40800EB840CDCF892
:1017200020405707FF0E09FA07F824EA0804D1F809
:10173000108008FA07F848EA0408CCF8208004680A
:101740004FEA420C06FA0CF7BC430F7907F0030787
:1017500007FA0CF7274307604C6814F4403F70D039
:101760003C4C276847F480472760246822F0030731
:1017700004F480440094384C07EB040CDCF808486F
:1017800097074FEA177809FA08F7BC43334FB84276
:1017900002D1002724E054E0314FB84201D10127A3
:1017A0001EE0304FB84201D1022719E02E4FB84257
:1017B00001D1032714E02D4FB84201D104270FE0D7
:1017C0002B4FB84201D105270AE02A4FB84201D178
:1017D000062705E0284FB84201D1072700E0082777
:1017E00007FA08F72743CCF80878DAF8004057469C
:1017F000D1F804C09C435FEACC2C00D51C433C606C
:10180000DBF800405F46D1F804C09C435FEA8C2CB3
:1018100000D51C433C60DEF800407746D1F804C098
:101820009C435FEA8C3C00D51C433C60084F083F5A
:101830003C68D1F804C09C435FEACC3C00D51C4313
:101840003C60521C102AFFF42FAFBDE8F88F000057
:10185000083C014044380240003001400000024092
:101860000004024000080240000C02400010024048
:101870000014024000180240001C024000690840A9
:1018800000D001207047426921EA02030A4043EA7E
:101890000241816170470AB1816170470904FBE729
:1018A00001488068704700006C0000207047704756
:1018B0002DE9F041016804464A694E6890F83E00FF
:1018C0000025D743FA0506D4F243D20503D46FF4BA
:1018D000807201254A61B90508D4F143C90505D4D0
:1018E00022686FF4007145F002055161790525D435
:1018F000F143C90522D4638D94F83D10226B202852
:1019000008D13BB9212910D029290ED0282901D18D
:10191000212A0AD022686FF48061516145F00405E4
:10192000102806D0402804D008E0204602F0A0FB92
:1019300004E02068016841F400710160380508D4B2
:10194000F043C00505D421686FF4006045F0080538
:101950004861002D07D0206C284320642046BDE854
:10196000F04101F02FBFBDE8F0812DE9F04702689A
:1019700000215368C66A90F83E4090F83D50102C04
:1019800012D0402C10D0046C002C7DD05469E4435C
:10199000A6077AD4DE43B60577D4036C03B1916908
:1019A000BDE8F04702F040BB976951694FF42A0C3B
:1019B000C9435FEAC1784FF02A4904D066452AD06E
:1019C0004E4528D010E0DE43B6050DD4C16A61450E
:1019D00001D1012103E0C16A494501D10821C16259
:1019E000BDE8F04702F0B8B90E0716D4DE43B605DD
:1019F00013D4416CC9B21161416B09B1C96B29B9EA
:101A0000816B002907D0C96B002904D000684168A8
:101A100041F400614160BDE8F0878E0706D4DE43E3
:101A2000B60503D4BDE8F04702F00AB9FE43526898
:101A300076074FEA02521DD4002AECDB0A0608D4CE
:101A4000DA43520505D4490705D5BDE8F04702F051
:101A50009BB84907DFD4D9438905DCD4212D05D0B3
:101A6000402CD8D1BDE8F04702F0BCB9BDE8F04742
:101A700002F048B8002ACEDB4A060BD4DA435205FE
:101A800008D4490708D501E00DE00EE0BDE8F047B5
:101A900001F0C4BF4907BED4D9438905BBD4BDE812
:101AA000F04701F052BF916970E7E10606D4D943CF
:101AB000890503D4BDE8F04702F01CBB2821212D85
:101AC00027D0292D25D0650655D4DD436D0552D488
:101AD000640752D590F83D30448D002C9BD012699C
:101AE000446A2270426A521C4262428D521E4285F2
:101AF000428D002A8FD12A2B8DD10268536823F49E
:101B0000806353602222026380F83D1000F0E8FAFF
:101B100081E7250623D4DD436D0520D4640720D555
:101B200090F83D30448D002CF2D0446A2478146142
:101B3000426A521C4262428D521E4285428D002AE8
:101B4000E6D1292BE4D10268536823F48063536003
:101B50002122026380F83D1000F0C3FA5BE76107C1
:101B6000D6D4D9438905D3D4418D0029D0D0416A38
:101B7000097811610AE06107CAD4D9438905C7D43D
:101B8000418D0029C4D01169426A1170416A491C13
:101B90004162418D491E41853DE7704770B50400A3
:101BA00025D094F83D00002520B984F83C5020460B
:101BB00000F052FA242084F83D002068016821F0EA
:101BC000010101602068016841F400410160206862
:101BD000016821F40041016000F0F6FB4D4A6168A4
:101BE000914201D84C4900E04C49884201D2012081
:101BF00070BD4B492368B0FBF1F15E6826F03F06EB
:101C00000E435E606368934206D94FF4967359435E
:101C10004FF47A73B1FBF3F12368491C1E6A26F076
:101C20003F06314319626168914210D84900401E55
:101C3000B0FBF1F2521CC2F30B02042A01D20420C1
:101C400022E0B0FBF1F0401CC0F30B001CE0A268E6
:101C5000F2B301EBC10303EB0116431EB3FBF6F332
:101C60005B1C43F480431B0549D092B301EBC102D6
:101C700002EB0111401EB0FBF1F0401CC0F30B0061
:101C800040F4804040F400402168CA694CF6FF737C
:101C90009A431043C861D4E90710014320680268E1
:101CA00022F0C00211430160D4E90301014320681E
:101CB000826848F2FF339A4311438160D4E90501F9
:101CC00008432168CA6822F0FF021043C86001E09F
:101CD0000EE016E02068016841F001010160256412
:101CE000202084F83D00256384F83E50002070BD1C
:101CF00001EB4106431EB3FBF6F35B1CB3E7012087
:101D0000C2E701EB4101401EB0FBF1F0401CC0F303
:101D10000B00B7E7A086010080841E0000093D008B
:101D200040420F007047704770477047704700008F
:101D30002DE9FF4F83B09A46DDE91197934604469B
:101D4000DDF84080FFF7ACFD054694F83D00202803
:101D500070D11923012271492046009502F09EFAA4
:101D60000028F5D194F83C00012863D0012084F8C4
:101D70003C0020680168C90703D1016841F00101F6
:101D800001602068016821F400610160222084F86C
:101D90003D00402084F83E0000262664C4F82480DC
:101DA000A4F82A90608D20855D48E062CDE9007539
:101DB00053465A462046049902F064F800287CD124
:101DC000208DD0B1012821D00228206824D041697B
:101DD00080690090208D032869D801282BD05149B3
:101DE00002283B464FF00002009559D08846204615
:101DF00002F054FA002860D13CE020684169816912
:101E00000091016841F40071016077E02068016889
:101E100021F480610160F0E7016821F480610160D4
:101E20002068016841F400610160206841698069AF
:101E3000009063E06FE02A463946204602F0ADFA92
:101E400098BB20680069616A08704EE020680168EC
:101E500041F40071016020680069616A0870606A7D
:101E6000401C6062218D491E2185618D491E61855E
:101E7000216838E02068016821F4806101602068F1
:101E80000069616A0870606A401C6062208D401EB3
:101E90002085608D401E60853B46002241460095AE
:101EA000204602F0FBF900B9D0E706E0FFE72A463A
:101EB0003946204602F071FA18B1012007B0BDE89A
:101EC000F08F20680069616A0870606A401C606277
:101ED000218D491E2185618D491E618521684A69D0
:101EE000D24352070AD409690170606A401C6062DB
:101EF000208D401E2085608D401E6085208D00282D
:101F00007FF468AF202084F83D0084F83E6084F8B8
:101F10003C600020D2E70220D0E700000200100061
:101F20000000FFFF040001002DE9FF4F83B09A4637
:101F3000DDE9119793460446DDF84080FFF7B0FCD9
:101F4000054694F83D0020287FD1192301224049FD
:101F50002046009502F0A2F9002876D194F83C00C2
:101F6000012872D0012084F83C0020680168C9076C
:101F700003D1016841F0010101602068016821F48A
:101F800000610160212084F83D00402084F83E007B
:101F900000262664C4F82480A4F82A90608D208549
:101FA0002C48E062CDE9007553465A462046049914
:101FB00001F0E6FF70B930E02A463946204602F0CB
:101FC0001FFA58B1206C042804D12068016841F43C
:101FD00000710160012007B0BDE8F08F606A2168E0
:101FE00000780861606A401C6062218D491E89B2D8
:101FF0002185628D521E628522685369DB435B072F
:102000000BD469B100781061606A401C6062208D59
:10201000401E2085608D401E6085208D0028CBD11C
:102020002A463946204602F013F90028CAD154F84E
:102030003D0B016841F400710160202004F81E0985
:10204000E67766770020C6E7FFE70220C3E70000D7
:10205000020010000000FFFF10B586B004461421F6
:102060006846FEF766FB1B492068884230D11A4853
:10207000016841F0020101600068694600F0020059
:102080000590C020009012200190012002900320B2
:102090000390042004901148FFF7F8FA0E4810301E
:1020A000016841F4001101600068002200F4001092
:1020B000059005211F2000F09BF81F2000F08AF8F2
:1020C00000220521202000F093F8202000F082F863
:1020D00006B010BD005400403038024000040240F9
:1020E00070477047024881680278114481607047E8
:1020F0006C0000200B4810B5016841F400710160CC
:10210000016841F480610160016841F480710160FF
:10211000032000F08DF8002000F006F800F03EF8F3
:10212000002010BD003C024010B5014688B00022DE
:10213000192000F05DF8192000F04CF81348002435
:10214000016841F001010160006805A900F001008B
:102150000690684600F018F900F046F90C490D4A5F
:10216000B0FBF1F10C48491E026040F2E732C0E9D1
:102170000324C0E9011400F037FE10B1012008B0BB
:1021800010BD054800F07CFEF9E70000443802402D
:1021900040420F0000000140080100200C4882B0BE
:1021A000016841F480410160006800F480400090C3
:1021B0000748001F016841F080510160006800225B
:1021C00000F0805000900F21901E02B000F010B877
:1021D00044380240002809DB00F01F020121914031
:1021E0004009800000F1E020C0F8001170470000B5
:1021F000F0B40E4B1B680C46C3F30223C3F1070572
:10220000042D00D90425191D072901D2002300E05F
:10221000DB1E012606FA05F1491E214099409E4029
:10222000761E16403143F0BC03F04CBA0CED00E0D2
:10223000064900F0070208684FF6FF03184040EA1D
:102240000220034A10430860704700000CED00E0D4
:102250000000FA052DE9F0470E46050065D0DFF8CD
:102260001481D8F80000F7B200F00700B04207D29E
:1022700088F80070D8F8000000F00700B04254D190
:1022800028683D4C810712D5400703D5206840F4EB
:10229000E05020602878000703D5206840F46040B3
:1022A00020602068A96820F0F000084320602878AA
:1022B000C0072DD0304968680839012812D002289B
:1022C00013D0032811D00968890700292DDA216865
:1022D00021F0030101432160FFF7E2FA814641F258
:1022E000883A0EE009688903EFE709688901ECE79D
:1022F000FFF7D6FAA0EB0901514502D90320BDE84A
:10230000F0872068696800F00C00B0EB810FEFD116
:10231000D8F80010404601F00701B14207D9077014
:10232000006800F00700B04201D00120E7E72878FC
:10233000400705D52068E96820F4E0500843206094
:102340002878000706D52068296920F4604040EA13
:10235000C100206000F058F82168084AC1F3031159
:10236000515CC8400649086006480068FFF7DCFE7B
:102370000020C4E7003C02400838024002BD0008CB
:1023800078000020700000200F2202600C4A1368C1
:1023900003F003034360136803F0F00383601368E2
:1023A00003F4E053C36012684FF4E05303EAD2022F
:1023B00002610448006800F00700086070470000F0
:1023C00008380240003C024004480549006809689A
:1023D000044AC1F38221515CC84070477800002054
:1023E0000838024012BD0008044805490068096821
:1023F000044AC1F34231515CC84070477800002064
:102400000838024012BD0008154810B5006810F0E9
:102410000C02144813D01449042A0FD0082A0ED1F4
:102420000F4C241F2268236802F03F025B0207D58D
:102430002068C0F38810A0FB010106E0084610BD2B
:102440002168C1F38811A1FB00010023FDF778FF8B
:102450002168C1F30141491C4900B0FBF1F010BDF6
:10246000083802400024F40040787D012DE9F84F3F
:1024700004006ED02078DFF84C93C007A9F1040562
:102480004AD009F104000168C1F38101012908D093
:102490000068C0F3810002280AD1D9F80000400288
:1024A00006D52868800337D560680028E1D033E07E
:1024B0006068B0F5803F10D0B0F5A02F286810D02C
:1024C00020F480302860286820F48020286060682C
:1024D000A8B1FFF7E5F906460DE0286840F4803022
:1024E000F4E740F480202860F7E700BFFFF7D8F951
:1024F000801B642873D828688003F7D50CE0FFF7A9
:10250000CFF9064605E000BFFFF7CAF9801B642833
:10251000F0D828688003F7D42078DFF8AC828007F1
:102520004FF0000A3ED5A748001D016811F00C0FBE
:1025300008D00068C0F3810002280BD1D9F8000050
:10254000400207D42868800716D5E068012800D12A
:1025500012E033E1E068B8B10120C8F80000FFF7ED
:102560009FF9064605E000BFFFF79AF9801B022895
:10257000C0D828688007F7D52868216920F0F800BE
:1025800040EAC10028600DE0C8F800A0FFF788F914
:10259000064604E0FFF784F9801B02281FD828684C
:1025A0008007F7D42078000722D5864F87486169D5
:1025B000703771B101210160FFF772F9064604E03E
:1025C000FFF76EF9801B022809D838688007F7D515
:1025D0000EE0C0F800A0FFF763F9064605E082E0D0
:1025E000FFF75EF9801B02287DD838688007F7D492
:1025F0002078400768D5DFF8CCB100270BF13C0B01
:10260000DBF80000C0000BD4DBF8001041F0805173
:10261000CBF80010DBF80000012700F0805000909C
:102620006B4E3068C00510D4306840F48070306064
:10263000FFF736F9009005E0FFF732F90099401AEC
:10264000022850D83068C005F6D55E4EA0686C36BA
:1026500001280FD00528306810D020F0010030602C
:10266000306820F004003060A068B8B1FFF718F9B6
:1026700000900FE0306840F00100F4E740F0040003
:102680003060F7E7FFF70CF90099411A41F2883002
:10269000814266D830688007F4D50EE0FFF700F974
:1026A000009007E0FFF7FCF80099411A41F28830EA
:1026B000814256D830688007F4D42FB1DBF800107F
:1026C00021F08051CBF80010A069C8B33D49091D25
:1026D0000968C1F3810102294AD00228504607D077
:1026E000C8F8600000E03CE0FFF7DAF804463BE0A1
:1026F0004746C8F86000FFF7D3F8064605E000BF7C
:10270000FFF7CEF8801B02282BD828688001F7D469
:10271000D4E907010843A16A2E4A490802EB0141A6
:10272000626A41EA8211084394F82C1040EA016180
:10273000C9F8001001203866FFF7B2F8044606E039
:102740003EE000BFFFF7ACF8001B022809D828685C
:102750008001F7D534E000BFFFF7A2F8001B022884
:1027600002D90320BDE8F88F28688001F4D427E05F
:102770000128F7D0D9F80000E26900F48001914205
:102780001CD1226A00F03F01914217D147F6C07177
:10279000626A0140B1EB821F10D1A26A4FF0FF3391
:1027A00000F4403103EB5202B1EB024F06D194F832
:1027B0002C1000F07060B0EB016F01D00120D1E768
:1027C0000020CFE70438024000004742800E474215
:1027D000007000400000FFFF7047000038B501683E
:1027E00004464A688868C043430606D5C30704D137
:1027F000D3435B0601D4216C05E0830708D4D3439F
:102800001B0605D4616C01B02046BDE83040084786
:10281000830603D5430601D5C30551D4D3439B0694
:102820004ED443060AD494F85130032B49D0636D3B
:1028300043F004036365CB688B680093830609D477
:10284000636D43F0010363658B6800930B6823F0AD
:1028500040030B60C00506D4606D40F00800606561
:10286000206880680090606D002829D02068416849
:1028700021F0E0014160012084F85100900701D46B
:10288000D00722D02068416821F003014160114D3A
:10289000E06C40B10565E06CFEF7A3FE18B1606D19
:1028A00040F040006065A06C002809D00565A06C70
:1028B000FEF797FE002803D0606D40F04000606591
:1028C00038BDC8688868009038BD2046FFF784FF8F
:1028D00038BD0000394F000870B5040009D0606AA7
:1028E000002540B125616561A56294F8510040B1B1
:1028F0000CE0012070BD6068B0F5827FF4D0E56126
:10290000F2E784F85050204600F044F8022084F8A2
:1029100051002068016821F040010160A0882189F0
:1029200000F4827001F404410843A18901F40061BC
:102930000843217C01F002010843217D01F00101DF
:102940000843218B01F400710843217F01F0380115
:10295000084394F8201001F080010843218D01F410
:102960000051084321680860A069042101EA104071
:1029700094F8241001F01001084321684860206891
:10298000C16921F40061C1616565012084F85100CD
:10299000002070BD10B586B0044614216846FDF7CE
:1029A000C8FE17492068884228D1164800210268CD
:1029B00042F480520260006800F480500590114893
:1029C0001438026842F001020260006800F0010061
:1029D0000590E02000900220CDE901010320039042
:1029E0000520049069460848FEF750FE00220521A4
:1029F0002320FFF7FDFB2320FFF7ECFB06B010BD03
:102A00000030014044380240000002402DE9F84FF8
:102A1000044690F8500000271D46164689460128B6
:102A20000DD04FF0010B84F850B0FEF739FF80460F
:102A300094F85100BA46012804D0022793E00220FE
:102A4000BDE8F88FB9F1000F73D0002E71D00320CC
:102A500084F85100C4F854A0C4F83090A686E686E5
:102A6000C4F838A0A4F83CA0A4F83EA0C4F844A040
:102A7000C4F840A0A068B0F5004F09D120680168F3
:102A800021F0400101602068016841F4804101604B
:102A900020680168490603D4016841F040010160E3
:102AA000E068B0F5006F606803D030B3012E24D029
:102AB00041E008B1012E1CD1206B21680088C8605C
:102AC00006E020688168890709D5216B0988C16003
:102AD000206B801C2063E08E401EE08609E0FEF73C
:102AE000DFFEA0EB0800A84202D3681C01D031E051
:102AF0007DB3E08E0028E4D120E0206B21680078CF
:102B0000087306E020688168890709D5216B097878
:102B10000173206B401C2063E08E401EE0860AE0BB
:102B2000FEF7BEFEA0EB0800A84203D3681C02D04B
:102B300010E017E06DB1E08E0028E3D1424629464F
:102B4000204602F001FA08B120206065A06818B1A3
:102B500006E0FFE7032706E02068C1688068009070
:102B6000606D00B1012784F851B084F850A0384658
:102B700066E72DE9F84F044690F8500000270A9EBA
:102B80001D4692468B464FF0010901280ED00120C8
:102B900084F85000FEF784FE804694F85100616886
:102BA00001280CD0B1F5827F07D102E00220BDE8F8
:102BB000F88FA16809B9042801D00227C2E0BBF14F
:102BC000000F27D0BAF1000F24D01DB394F85100A4
:102BD000042802D0052084F8510000206065C4F864
:102BE00038A0E587A587C4F830B0E586A5862064BF
:102BF000606420680168490603D4016841F040011F
:102C00000160E068B0F5006F606805D0E8B3012DA1
:102C100046D07FE0012795E008B1012D39D1206B26
:102C200021680088C860206B801C2063E08E401EF5
:102C3000E0862EE02068816889070FD5E18E69B1B2
:102C4000B9F1010F0AD1216B0988C160206B801C8A
:102C50002063E08E401EE0864FF000092068816806
:102C6000C9070CD0E18F51B1C068A16B0880A06B7F
:102C7000801CA063E08F401EE0874FF00109FEF743
:102C80000FFEA0EB0800B04200E009E001D3701C89
:102C900050D1E08E0028CDD1E08F0028CAD13FE08E
:102CA000206B216800780873206B401C2063E08E45
:102CB000401EE0862EE02068816889070FD5E18EEE
:102CC00069B1B9F1010F0AD1216B09780173206B49
:102CD000401C2063E08E401EE0864FF00009206813
:102CE0008168C9070CD0E18F51B1C068A16B087031
:102CF000A06B401CA063E08F401EE0874FF00109ED
:102D0000FEF7CEFDA0EB0800B04202D3701C01D04C
:102D100010E07EB1E08E0028CDD1E08F0028CAD12E
:102D200042463146204602F00FF928B10127202003
:102D3000606507E0032705E0A06818B92068C1684E
:102D400080680090012084F85100002084F8500031
:102D500038462CE77047704770B590F83C20012A40
:102D600032D0012480F83C40022280F83D200368E4
:102D70005A689D6822F070060A6832435A60134B05
:102D800002689A4214D0B2F1804F11D0104B9A428F
:102D90000ED0104B9A420BD00F4B9A4208D00F4BDB
:102DA0009A4205D00E4B9A4202D00E4B9A4204D161
:102DB000496825F080031943916080F83D40002167
:102DC00080F83C10084670BD022070BD0000014034
:102DD0000004004000080040000C004000040140D6
:102DE000004001400018004010B5040003D094F8E2
:102DF0003D0010B107E0012010BD002084F83C0028
:102E0000204600F01FF8022084F83D00211D2068B4
:102E100002F0A2F9012084F8460084F83E0084F80C
:102E20003F0084F8400084F8410084F8420084F8B0
:102E3000430084F8440084F8450084F83D000020F5
:102E400010BD000008B500680B49884212D10B483C
:102E5000016841F0020101600068002200F00200F8
:102E6000009005211D20FFF7C3F9BDE808401D2093
:102E7000FFF7B0B908BD0000000400404038024030
:102E800090F83D10012901D001207047022180F8FF
:102E90003D100168CA6842F00102CA600068114929
:102EA000884214D0B0F1804F11D00F4988420ED023
:102EB0000E4988420BD00E49884208D00D498842FD
:102EC00005D00D49884202D00C49884204D181685E
:102ED00001F00701062903D0016841F001010160FA
:102EE000002070470000014000040040000800403E
:102EF000000C004000040140004001400018004068
:102F000070B5044690F83C000025012817D0012632
:102F100084F83C60022084F83D002068826822F03A
:102F2000770222F47F4282600868502838D00DDC96
:102F300020284FD005DC90B3102811D14AE00220A0
:102F400070BD302846D040280AD13BE060282FD001
:102F500070280DD0B0F5805F03D0B0F5005F12D0BF
:102F6000012584F83D60002084F83C00284670BDAF
:102F7000CB68D1E90121206802F05FF920688168FF
:102F800041F0770109E0CB68D1E90121206802F026
:102F900054F92068816841F480418160E1E719E0DB
:102FA000CA684968206802F01DFA5021206806E0CE
:102FB000CA684968206802F026FA6021206802F099
:102FC00046F9CEE7CA684968206802F00BFA40214A
:102FD0002068F4E7226801461046F0E7704770B5B4
:102FE0000446006801694FF00005C943890715D4FC
:102FF000C168C943890711D4E91E01610120207706
:10300000206880698007204602D0FFF7E7FF04E0D0
:1030100000F0C0F8204600F052F9257720680169D9
:10302000C943490717D4C168C943490713D46FF08E
:1030300004010161022020772068806910F4407F3C
:10304000204602D0FFF7CAFF04E000F0A3F82046B4
:1030500000F035F9257720680169C943090716D4BE
:10306000C168C943090712D46FF008010161042047
:1030700020772068C0698007204602D0FFF7AEFFA6
:1030800004E000F087F8204600F019F92577206861
:103090000169C943C90617D4C168C943C90613D415
:1030A0006FF010010161082020772068C06910F4DA
:1030B000407F204602D0FFF791FF04E000F06AF85D
:1030C000204600F0FCF8257720680169C943C9074C
:1030D00008D1C168C943C90704D1891E01612046CE
:1030E00000F090F920680169C943090609D4C16854
:1030F000C943090605D46FF0800101612046FFF73E
:1031000029FE20680169C943490609D4C168C94339
:10311000490605D46FF040010161204600F07CF9BA
:1031200020680169C94389060BD4C168C94389066F
:1031300007D46FF0200101612046BDE87040FFF721
:103140000ABE70BD10B586B0044614216846FDF76E
:10315000F0FA0D492068884214D10C480021026819
:1031600042F002020260006800F002000590332085
:1031700000900220CDE90101CDE903106946044821
:10318000FEF784FA06B010BD00040040303802405B
:1031900000040240704770B5044690F83C000026D9
:1031A0000D4601280FD0012084F83C006AB1042AA2
:1031B0001DD0082A2FD00C2A3FD00126002084F8E9
:1031C0003C00304670BD022070BD206802F048F817
:1031D0002068816941F0080181612068816921F0DE
:1031E00004018161206881692A69114311E0206826
:1031F00002F066F82068816941F40061816120680D
:10320000816921F480618161206881692A6941EACC
:1032100002218161D2E7206802F088F82068C16944
:1032200041F00801C1612068C16921F00401C16158
:103230002068C1692A69114311E0206802F0AAF8E8
:103240002068C16941F40061C1612068C16921F44D
:103250008061C1612068C1692A6941EA0221C161B6
:10326000ACE710B5040003D094F83D0010B107E0BE
:10327000012010BD002084F83C00204600F01EF81C
:10328000022084F83D00211D206801F065FF012027
:1032900084F8460084F83E0084F83F0084F840003B
:1032A00084F8410084F8420084F8430084F8440024
:1032B00084F8450084F83D00002010BD7047704739
:1032C00010B50446022249B104290ED0082913D0B2
:1032D00094F84100012816D0012010BD94F83E005A
:1032E0000128F9D184F83E200FE094F83F0001282E
:1032F000F2D184F83F2008E094F840000128EBD197
:1033000084F8402001E084F841200122206801F087
:1033100087FF16492068164A884201D0904203D19F
:10332000436C43F4004343642068884213D0B0F1F7
:10333000804F10D00F4988420DD00F4988420AD0E3
:103340000E49884207D0904205D00D49884202D0EC
:103350000C49884204D1816801F00701062903D095
:10336000016841F001010160002010BD0000014032
:10337000000401400004004000080040000C004030
:10338000004001400018004030B504460D4600687A
:10339000002201F045FF194B41F2111120688A10FB
:1033A000984202D0164B984209D1036A0B4206D1CB
:1033B000036A134203D1436C23F40043436420683F
:1033C000036A0B4206D1016A114203D1016821F060
:1033D0000101016001203DB1042D08D0082D09D064
:1033E00084F84100002030BD84F83E00FAE784F8FC
:1033F0003F00F7E784F84000F4E7000000000140D8
:103400000004014000680349884201D1FEF76ABE0A
:103410007047000000000140704770B5040004D000
:1034200094F83D00002510B106E0012070BD84F83D
:103430003C50204600F022F8242084F83D0020680B
:10344000C16821F40051C160204601F0EFFF2068FF
:10345000016921F4904101612068416921F02A014C
:1034600041612068C16841F40051C1602564202099
:1034700084F83D0084F83E00002070BDF0B587B0B0
:10348000044614216846FDF754F91D492068884216
:1034900033D11C480024016841F01001016000682C
:1034A00000F01000059017481438016841F0010140
:1034B0000160016801F001010591016841F002011C
:1034C00001600068022500F0020005904FF40070D2
:1034D000CDE9000502AA0326072782E8D000694645
:1034E0000948FEF7D3F80820CDE9000502AA69468D
:1034F00082E8D0000548FEF7C9F807B0F0BD00002B
:103500000010014044380240000002400004024024
:103510002DE9F843044690F83D001F4616460D4637
:1035200020284CD1C5B1BEB194F83C00012846D04A
:10353000012084F83C004FF00008C4F840802120AE
:1035400084F83D00FEF7ACF9A6848146E684A068C5
:10355000B0F5805F03D004E00120BDE8F883206966
:1035600028B12E465FF0000584F83C800EE000266E
:10357000FAE78021204601F0DFFFA0B9AEB116F8CE
:10358000010B21684860E08C401EE084E08C4B46D3
:103590004FF0000200970028EBD14FF04001204689
:1035A00001F0CAFF30B10320D7E735F8020BC0F3B2
:1035B0000800E6E7202084F83D000020CDE7022047
:1035C000CBE7FEE72DE9F0414FF40064374D4FF4AF
:1035D000FA660FE036A0FCF74FFF0122214628468D
:1035E000FEF759F93046FEF711F800222146284629
:1035F000FEF751F901F0B0F90028EBD10FE032A04D
:10360000FCF73AFF012221462846FEF744F93046EE
:10361000FDF7FCFF002221462846FEF73CF901F0A9
:10362000AFFB0028EBD04FF4FA7600BF03F02CFE7E
:1036300030B129A0FCF720FF3046FDF7E7FFF5E7A2
:10364000012221462846FEF726F9284F4FF400565E
:10365000002231463846FEF71EF9C820FDF7D6FF96
:10366000002221462846FEF716F901223146384647
:10367000FEF711F9C820FDF7C9FF012221462846AF
:10368000FEF709F9002231463846FEF704F9C82052
:10369000FDF7BCFF002221462846FEF7FCF8314624
:1036A0003846BDE8F0410122FEF7F5B800000240BF
:1036B0004E524632344C30315F496E697420466157
:1036C000696C6564000000005049445F496E69748C
:1036D000204661696C6564006D70755F646D705F34
:1036E000696E6974204661696C6564000008024077
:1036F0000148FEF7DDB80000540200200148FEF743
:1037000034B900005402002038B5806B002190F8D5
:103710003D202B4B46F2A8141B68B3FBF4F3C3EB1C
:10372000C30303EB830300933BB15B1E0093036869
:103730001B689B0505D5009BF6E7036C43F020034F
:103740000364436B03B1D963836B03B1D96303682B
:103750001C6824F480641C604185436B03B11965C7
:10376000836B03B1196503681C6824F001041C60B5
:1037700090F83D402023602C0BD0282434EA02022C
:103780000FD080F83D3080F83E1000BFFEF705FAFC
:1037900038BD80F83D3080F83E100164FEF786F8B1
:1037A00038BD0268136843F00103136002681368B0
:1037B00043F480631360016380F83D40E6E7000056
:1037C0007800002070B5044690F83D0094F83E1053
:1037D000102901D0402906D1222804D121680A6885
:1037E00022F400620A60282131EA00024FF000054D
:1037F0004FF0200626D021684968090505D46028C5
:1038000003D084F83D6084F83E5025632068416809
:10381000090537D5416821F400614160606B90F87B
:1038200035203C49012A11D00165606BFDF7D9FEB6
:1038300038B32068016821F00101016084F83D601F
:10384000606B1CE0256384F83D10DFE7A06B016529
:10385000A06BFDF7C6FEA0B120684169C9434906C7
:1038600005D40069616A0870606A401C6062206863
:10387000016821F00101016084F83D60A06B016DD9
:10388000884710E094F83D10602910D04169C94381
:10389000490605D40069616A0870606A401C60626C
:1038A0002046FEF77AF9206CC1071CD115E084F898
:1038B0003D6025644169C943490605D40069616AD0
:1038C0000870606A401C60622068016821F0010194
:1038D00001602046FDF7EAFFE5E7810703D44107D1
:1038E00001D4000704D52068416821F4E0614160FB
:1038F00094F83D00216C49070BD5282809D10648CA
:10390000E062256384F83D6084F83E502046FEF76F
:1039100009FA70BD093700080000FFFF01684A6915
:10392000D24352050FD46FF480624A61002140F8FF
:10393000301F202242738173026942F00402026147
:103940000173012070470020704710B5C26A438D93
:103950000168042B06D0438D032B08D0438D022B26
:103960001DD012E04A6822F480624A600CE04B6885
:1039700023F480634B60042A06D0022A04D0016835
:103980000A6822F480620A6001680969426A11705B
:10399000416A491C4162418D491E418510BD012A81
:1039A00030D0102A2ED0042A30D0022A2ED00A6815
:1039B00042F400720A6001680969426A1170416A42
:1039C000491C4162428D521E4285026812690A708A
:1039D000416A491C4162418D491E418501684A681E
:1039E00022F440724A60202180F83D1090F83E2079
:1039F0000021402A80F83E100CD012210163FEF70E
:103A000092F910BD0A6822F48062D3E70A6842F492
:103A10008062CFE70163FEF788F910BD38B590F8F2
:103A20003D1022290FD1418D03290DD90168096963
:103A3000426A1170416A491C4162418D491E4185AB
:103A4000418D032906D038BDC26A022A02D001295D
:103A500006D029B10068416821F48061416038BD19
:103A6000274946F2A81300220968B1FBF3F101EBE4
:103A70008101009101682023009C641E009422D0E3
:103A80000C68A405F8D40C6824F480640C60016808
:103A90004C6824F4E0644C6001680969446A217050
:103AA000416A491C4162418D491E418580F83D3083
:103AB00090F83E1080F83E2040291DD0122101636D
:103AC000FEF731F938BD046C44F0200404644C68FE
:103AD00024F4E0644C6001680969446A2170416A19
:103AE000491C4162418D491E418580F83D3080F876
:103AF0003E20FEF752F838BD0263FEF716F938BDD6
:103B00007800002010B5C26A90F83D1021290BD131
:103B1000418D51B1416A026809781161416A491CBD
:103B20004162418D491E418510BD20230021082A94
:103B300013D0202A11D012F5803F0ED002685468AD
:103B400024F4E06454601122026380F83E1080F88F
:103B50003D3000BFFEF7E8F810BD0268546824F459
:103B6000E06454600268146844F4007414600163F3
:103B700080F83D3090F83E2080F83E10402AE9D190
:103B8000FEF7D4F810BD000010B590F83D1090F885
:103B90003E30C26A048DB4B1212903D0402B11D12B
:103BA00022290FD1418DE1B390F83E10402942D037
:103BB000416A026809781161416A491C4162418D7C
:103BC000491E418510BD2129E8D120230021082A62
:103BD00013D0202A11D012F5803F0ED0026854680D
:103BE00024F4E06454601122026380F83E1080F8EF
:103BF0003D3000BFFEF798F810BD0268546824F409
:103C0000E06454600268146844F400741460016352
:103C100080F83D3090F83E2080F83E10402AE9D1EF
:103C200000E002E0FEF782F810BD0068416821F470
:103C30008061416010BDBDE8104000F0D3B80000C5
:103C400078B590F83E50C26A036B90F83D6000244E
:103C50000168222E7AD1066D0EB9402D76D0056D01
:103C60001DB90569B5F5404F09D0458D05B3468DA1
:103C7000384D012E0ED0438D022B3AD05DE04A69BB
:103C80008A6900920A6842F480720A60016D491CD8
:103C9000016578BDAA4213D10A6822F480620A60E5
:103CA00001684A68120503D50A6822F4806216E0AA
:103CB0004A698A6900920A6842F400720A6039E02F
:103CC000082A10D0202A0ED0122B0AD0042A03D0A2
:103CD000022A01D0102AE7D10A6842F480620A6001
:103CE00024E0012AE0D00A6822F480620A600168B8
:103CF000DEE7042A21D0022A1FD0102A1DD00B682B
:103D000023F480630B6001680B6843F400630B606D
:103D100001684B681B0509D5AA4212D0012A10D0B0
:103D2000082A0ED0102A0CD0202A0AD001684A692D
:103D300089690091046578BD08E00B6843F48063ED
:103D4000E5E74A6842F480524A60EFE748698869CB
:103D50000090F0E70000FFFF90F83E10402910D0DF
:103D60000169B1F5804F19D0016DA9B3016D012929
:103D700010D1416C5FF0F10201F4407142EAD111BF
:103D800006E0016D0029416C05D0C9B241F0010186
:103D900000680161704701F0FE01F9E790F83D10FD
:103DA0002129416C09D0C9B241F0010102681161B9
:103DB000416B29B1C96B49B902E001F0FE01F5E799
:103DC000816B0029E6D0C96B0029E3D00068416807
:103DD00041F4006141607047FFE7416CF02201F45B
:103DE0004071CBE710B590F83D10026D22B3026D23
:103DF000012A2FD0026D022A1DD122292FD0428DF7
:103E00000AB1212933D0428D002A14D1212912D19F
:103E100001684A6822F4E0624A6001680A6842F474
:103E200000720A6000210163202280F83D2080F8A2
:103E30003E10FDF77BFF10BDC16C0129816C02D0E3
:103E4000C1F3072108E00268C9B21161016D891C44
:103E5000016510BD816CC9B20268116104E001689E
:103E60000A6842F480720A60016D491CF0E7416AF9
:103E7000026809781161416A491C4162418D491EFD
:103E8000418510BD2DE9F84F0446006889460B9D19
:103E900001689846174641F4806101602068016816
:103EA00041F48071016000954FF0011B00225946DA
:103EB00020460A9B00F0F2F94FF4007A40B12068E6
:103EC0000068C00501D5C4F840A00320BDE8F88F04
:103ED000216809F0FE0008612B46284920460A9A0D
:103EE00000F010FAF0BB20684169806900902A4612
:103EF00020460A9900F084FA40B1206C04283AD197
:103F00002068016841F40071016034E0FEB2B8F14C
:103F1000010F09D02168380A08612A4620460A990B
:103F200000F06EFA0028E8D1206806612A46204693
:103F30000A9900F065FA0028DFD12068016841F491
:103F40008071016000950022594620460A9B00F0CE
:103F5000A5F90028B3D1216809F0FF0040F0010065
:103F6000086100E007E02B46044920460A9A00F069
:103F7000C9F90028AAD00120A8E70000020001002A
:103F80002DE9F843044600680D46DDE9089701680D
:103F90009846164641F4807101604B4600224FF06E
:103FA00001112046009700F079F948B120680068B7
:103FB000C00502D54FF4007020640320BDE8F883EB
:103FC000216805F0FE0008613B464A461549204637
:103FD00000F098F988B920684169806900903A46F4
:103FE0004946204600F00CFA48B1206C042804D160
:103FF0002068016841F4007101600120DEE7F5B23C
:10400000B8F1010F09D02168300A08613A464946E3
:10401000204600F0F5F90028E7D12068056100206E
:10402000CCE700000200010038B50C4690F83D20B6
:1040300000212825954302680B4605D051699169F6
:10404000009180F83C3038BD556825F48065556096
:10405000E243540700D50121120601D5828900E010
:10406000028B80F83C3092B2FDF721FC38BD000095
:104070002DE9F04190F83D40C26A002320261C4FF4
:1040800001686FF48065082A01D0202A01D1282C0C
:1040900004D0212C16D04D61BDE8F081C7624A687A
:1040A00022F4E0624A6001684D6101680A6822F406
:1040B00080620A60036380F83D6080F83E30FDF75F
:1040C00031FEE9E7C7622122026380F83D6080F893
:1040D0003E304A6822F4E0624A6001684D6101683E
:1040E0000A6822F480620A60FDF7FBFFD4E7000053
:1040F0000000FFFFF8B590F83D6004460068416895
:1041000021F4E06141602068002541690091016867
:1041100041F0010101602068016821F480610160C3
:1041200020684168090520D5474F222E48D02A2E05
:1041300046D0616B096849686185618D19B1216C50
:1041400041F004012164416821F400614160606B29
:10415000FDF759FA012808D0606B0765606BFDF721
:1041600040FA10B1606B016D8847608D08B320681C
:104170004169C943490708D40069616A0870606AE7
:10418000401C6062608D401E608520684169C943A3
:10419000490608D40069616A0870606A401C606260
:1041A000608D401E6085608D18B1206C40F0040069
:1041B0002064206C00B32046BDE8F840FFF702BB46
:1041C000A16B096849686185618D19B1216C41F065
:1041D00004012164416821F400614160A06BFDF796
:1041E00012FA0128C1D0A06B0765A06BFDF7F9F9A1
:1041F0000028BAD0A06BB6E72A2E06D12563282066
:1042000084F83D002046FDF76BFF94F83D10202018
:1042100028290DD0216B222901D0222E07D1256318
:1042200084F83D0084F83E502046FDF759FFF8BD64
:104230000649E162256384F83D0084F83E5020463B
:10424000FDF770FDF8BD0000093700080000FFFF12
:1042500070B516460D4604460DE02046FFF75EFB9E
:1042600008B1012070BD681C05D0FDF719FB801B4B
:10427000A84207D835B120684069C0434007ECD454
:10428000002070BD002044F8300F20216173A0731E
:10429000216941F0200121612073E2E72DE9F04717
:1042A0001E4690460D460446C1F30747DDF82090B0
:1042B00008E0701C06D0FDF7F3FAA0EB0900B0424D
:1042C0000FD876B12068012F18D0806925EA000048
:1042D0000004000C14D000214145EAD00020BDE8C4
:1042E000F087002044F8300F20216173A07321690A
:1042F00041F02001216120730120F0E74069E5E7EA
:104300000121E9E72DE9F0479A4691460E46044619
:1043100000254FF02008C1F3074725E020684069D9
:10432000C043400514D42068016841F40071016065
:1043300021686FF480604861256384F83D8084F8CB
:104340003E50206C40F00400206484F83C501FE094
:10435000B9F1FF3F08D0FDF7A3FAA0EB0A014945E8
:104360000CD8B9F1000F09D02068012F13D0806953
:1043700026EA00000004000C0BD0CFE744F8305FC1
:1043800084F80D80A573206940F02000206125731A
:104390000120BDE8F0874069EAE72DE9F0410025FA
:1043A00090460E460446202717E04069C043C006E9
:1043B0000CD454F8301B6FF01000486144F81059C9
:1043C0006777A577206A2062257717E0FDF768FAFE
:1043D000A0EB0800B04208D83EB120684169C9434B
:1043E0004906E2D40020BDE8F08144F8305F6773ED
:1043F000A573206940F02000206125730120F2E7B9
:1044000070B516460D4604460DE02046FFF786FAC5
:1044100008B1012070BD681C05D0FDF741FA801B72
:10442000A84207D835B120684069C0430006ECD4E3
:10443000002070BD002044F8300F20216173A0736C
:10444000216941F0200121612073E2E770B51D4927
:10445000DFED1D0A1D4D91ED000A4FF400644FF48D
:10446000FA76B12823D0B22824D0B52803D0B428B6
:1044700001D0B32825D1012221462846FDF70BFAA9
:10448000304603F047FD002221462846FDF703FA97
:10449000012221462846FDF7FEF9304603F03AFD99
:1044A00021462846BDE870400022FDF7F4B930EE01
:1044B000200A01E030EE600A81ED000A00F060FCA5
:1044C000E6E770BD64000020CDCCCC3D000002408A
:1044D000014603480A230022006803F0C1BD000022
:1044E0000C00002010B500F057FA00BF01F062F890
:1044F0000028FBD100F0F2FAFCF78AFE0028FBD17D
:1045000010BD40F2DE3003461A46114600F0ACB949
:104510007CB514460D4606466B4606224321D02044
:1045200000F010F800280BD1BDF8001049BA318016
:10453000BDF8021049BA2980BDF8041049BA21809B
:104540007CBD00000EB56420CDE9003202900A4621
:104550000123D0210348FDF7EBFB002800D0012008
:104560000EBD0000540200200EB56420CDE90032DB
:1045700002900A460123D0210348FDF7D5FC00280C
:1045800000D001200EBD00005402002010B5012112
:10459000134A084603F024FE124C114A0C212061F4
:1045A000183A0A2003F08EFD0D4AE060843A00219B
:1045B0000D4803F0A9FE0A4A2060603A00210B482A
:1045C00003F0A2FE064A60603C3A0021084803F06E
:1045D0009BFEA0600248103003F0D3FC606110BD68
:1045E00090B0000800000020595000088F700008AB
:1045F00031610008F0B587B014216846FCF799F8DE
:1046000031480025016841F004010160016801F0B2
:1046100004010591016841F080010160016801F029
:1046200080010591016841F001010160016801F01C
:1046300001010591016841F0020101600068012259
:1046400000F00200214E5403059021463046FDF74C
:1046500022F91F4F012218213846FDF71CF90022CC
:10466000A1103846FDF717F90094012402200395A4
:10467000CDE9014069463046FDF708F8CDE900452F
:10468000694638460294FDF701F8042000904FF483
:104690000410CDE9010469463846FCF7F7FF40F6FF
:1046A0001800CDE9000469463846CDE90245FCF71B
:1046B000EDFF002205210820FDF79AFD0820FDF7F7
:1046C00089FD07B0F0BD000030380240000802400C
:1046D000000002400D4810B50B4901600C494160D3
:1046E00000214FF480428160C0E903124161816181
:1046F000C1610162FDF752FA002803D0BDE8104005
:10470000FCF735BF10BD00000054004054020020EB
:10471000A0860100104810B50E4901604FF4827167
:10472000416000218160C1604FF400720161C0E905
:1047300005121822C0E90721416281620A21C16283
:10474000FEF7CAF8002803D0BDE81040FCF70FBF01
:1047500010BD000000300140C402002010B58EB032
:1047600000240794089409940A940B941C21684629
:104770000C94FBF7DEFF2C482A49016040F24F11F0
:10478000C0E9011441F28831C0E903148461FEF7E5
:104790002BFB08B1FCF7EBFE4FF48050079007A904
:1047A0002148FEF7ADFB08B1FCF7E1FE1E48FEF71D
:1047B00058FD08B1FCF7DBFE0B940BA91A480C94CA
:1047C000FEF7CAFA08B1FCF7D2FE6020009040F272
:1047D000DE30CDE90104042004900022694612482D
:1047E000FEF7D9FC08B1FCF7C2FE042269460E4868
:1047F000FEF7D1FC08B1FCF7BAFE082269460A4868
:10480000FEF7C9FC08B1FCF7B2FE0C226946064867
:10481000FEF7C1FC08B1FCF7AAFE0348FEF792FCC4
:104820000EB010BD000400401C0300200C4810B561
:104830000A4901604FF4E1314160002181600822A2
:10484000C160C0E904128161C161FEF7E6FD002884
:1048500003D0BDE81040FCF78ABE10BD0010014037
:1048600064030020FEE7000030B5054C256868634E
:10487000206881632068C2632068036430BD000043
:104880001C03002010B500210E48FEF719FD18B1D9
:10489000012010BD022010BD04210A48FEF710FDC2
:1048A0000028F7D108210748FEF70AFD18B10320B8
:1048B00010BD042010BD0C210248FEF701FD0028A8
:1048C000F7D110BD1C03002010B500210E48FEF7E3
:1048D0005BFD18B1012010BD022010BD04210A4863
:1048E000FEF752FD0028F7D108210748FEF74CFDDE
:1048F00018B1032010BD042010BD0C210248FEF7A2
:1049000043FD0028F7D110BD1C030020FEE7000086
:104910001CB50FA10522D1E90001CDE900016946CE
:10492000302000F043F905226946102000F064F8B9
:10493000002069460A5CA52A03D1401CC0B20528A4
:10494000F8D3052801D001201CBD00201CBD0000AB
:10495000A5A5A5A5A50000000D4810B50068016833
:1049600041F0400101600B4C002208212046FCF779
:1049700092FF012210212046FCF78DFF02E0642007
:10498000FCF744FEFFF7C4FF0028F8D110BD00007B
:10499000C40200200000024010B5154C002208217E
:1049A0002046FCF778FF052212492A2000F0FEF885
:1049B0000121212000F01CF90121222000F018F92A
:1049C0002821252000F014F92021312000F010F9D1
:1049D0000F21262000F00CF90F21202000F008F90B
:1049E00020460122BDE810400821FCF754BF00001A
:1049F00000000240B5B00008F7B582B0FF20114FAB
:104A000015460E468DF80400002210213846FCF7AA
:104A100042FF6423012202A90B48FDF7F7FF044679
:104A20004FF47A7000902B46324601A90648FEF7F3
:104A3000A0F8012210213846FCF72DFF05B02046D2
:104A4000F0BD000000000240C402002011B583B098
:104A5000FF200F4C8DF80800002210212046FCF7A3
:104A60001AFF6423012203A90A48FDF7CFFF64203F
:104A70000090012301AA02A90648FEF77AF8012254
:104A800010212046FCF707FF9DF8040004B010BD7C
:104A900000000240C402002070B505460E484FF4E5
:104AA0007A71006803F06EFB0720FFF7CFFF044622
:104AB0000146272000F09CF860060AD520222946EE
:104AC0006120FFF799FFFF21E22000F091F800201C
:104AD00070BD012070BD00001000002010B5184C02
:104AE000002208212046FCF7D6FE05221549302079
:104AF00000F05CF813490522491D2A2000F056F801
:104B00000121212000F074F80121222000F070F82A
:104B10001A21242000F06CF82821252000F068F8E4
:104B20000F21262000F064F80E21202000F060F80C
:104B300020460122BDE810400821FCF7ACBE000071
:104B400000000240B0B0000870B5164D04460022C7
:104B500008212846FCF79FFE20222146A02000F0D5
:104B600025F8012208212846FCF795FE0E484FF44F
:104B70007A71006803F006FB0720FFF767FF044621
:104B80000146272000F034F8E00605D5FF21E1209A
:104B900000F02EF8012070BDA00601D5002070BDE8
:104BA000022070BD0000024010000020F7B50E4D3D
:104BB00016460F46002210212846FCF76CFE64239F
:104BC000012269460948FDF721FF04464FF47A7334
:104BD000324639460548FDF719FF012210212846C3
:104BE000FCF759FE2046FEBD00000240C402002032
:104BF00073B50D4D002210212846FCF74CFE6423AE
:104C0000012269460948FDF701FF04466423012299
:104C100001A90648FDF7FAFE012210212846FCF7FB
:104C20003AFE20467CBD000000000240C402002085
:104C300010B59FED470A029C80ED030A80ED040A3F
:104C4000DFED440AFAEE042AC0ED000A80ED010A05
:104C500080ED020A80ED070AF2EE040AC0ED050AB3
:104C6000C0ED062A9FED3C1ADFED3C1A2030B1EE74
:104C7000042A80EC031A01F1200C81ED030A9FED58
:104C8000383A81ED040A81ED003A81ED010A81EDA7
:104C9000020A81ED070AC1ED050AC1ED062A314875
:104CA000DFED313ADFED312ABBEE043A8CEC031A2A
:104CB00004F1200C82ED030A82ED040AD0ED010A12
:104CC0009FED2B4AC2ED000AC2ED013AC2ED022A65
:104CD00082ED070AF3EE040AC2ED050A82ED063AF8
:104CE000DFED244A82ED084AC2ED094AC2ED0A0A04
:104CF00083ED030A83ED040A90ED005A83ED005A18
:104D0000C3ED013AC3ED022A83ED070AC3ED050A9C
:104D100083ED063A83ED084AC3ED094AC3ED0A0A5A
:104D200084ED030ADFED143A84ED040AC4ED003A81
:104D3000DFED123AC4ED013AC4ED022A84ED070A10
:104D4000C4ED050A84ED063A8CEC031A10BD000090
:104D500000000000E17A143F00004842000048C211
:104D60005C8FC23E64000020A69B443B6F12833AD6
:104D70000000A0420000A0C28FC2353F6F12033B6B
:104D8000064808B500F12C0300F15802A0F15801C3
:104D900000902C38FFF74CFF012008BDA80100202F
:104DA00070EE600A90ED032A90ED000AD0ED021A31
:104DB00030EEC22A20EE201A90ED010AD0ED042A2E
:104DC00061EE821A90ED0A2A20EE220AB4EEE02A61
:104DD000F1EE10FA06D3B1EE422AB4EEE02AF1EE7B
:104DE00010FA02DD31EE210A13E090ED062AB4EE4E
:104DF000C02AF1EE10FA06DC90ED052AB4EEC02AC6
:104E0000F1EE10FA01D2B0EE420A31EE000A30EEB5
:104E1000210A80ED070AB0EE401A90ED080AB4EEC0
:104E2000C01AF1EE10FA06DA90ED090AB4EEC01AD3
:104E3000F1EE10FA01D280ED070A32EEA00A094A1B
:104E400010EE101A80ED040A914204DC10EE101AE4
:104E5000054A914203D99FED050A80ED040AC0ED91
:104E6000030A70470000A0420000A0C2000000003A
:104E70000EB56846FFF72CFB00280DD19DF80B00FE
:104E8000A52809D19DF80000A12806D0A82803D1A3
:104E90009DF80100FFF7DAFA0EBDBDF90200DFED63
:104EA0001F0AA0F2DC5000EE100A1D4AB8EEC00A3C
:104EB000118820EE200ABDEEC00A10EE100A084448
:104EC00080B2108003F0C9FF1080BDF8040000EE2E
:104ED000100AF8EE400A9FED130A80EE801ADFED0B
:104EE000120A31EE601A82ED011ABDF8060001EED9
:104EF000100AF8EE411A81EE801A31EE601A82ED46
:104F0000021ABDF8080001EE100AB8EE411AC1EE0F
:104F1000001A31EEE00A82ED030A0EBD8FC2753C25
:104F2000440200200000C8420000FA430148FDF797
:104F300055BC0000C402002010B5806B0021C18761
:104F4000C186FDF749FC10BD38B504461248134B25
:104F50000068B0FBF3F04FF47A7358430090606838
:104F6000B0F5827F0DD10B460092002280212046B1
:104F700000F016F870B1606D40F02000606503200D
:104F800038BD009830B1401E009020688068C04352
:104F90000006F6D5002038BD7800002000366E01EE
:104FA0002DE9F8431E46914688460446089DFCF7C5
:104FB00077FC401B351AFCF773FC07462548006850
:104FC000C0F3CB30684338E0701C37D0FCF768FC86
:104FD000C01BA84203D215B1009860B32CE0206832
:104FE000416821F0E00141606068B0F5827F0BD13B
:104FF000A068B0F5004F02D0B0F5806F04D12068F2
:10500000016821F040010160A06AB0F5005F09D19C
:105010002068016821F4005101602068016841F4B2
:1050200000510160012084F85100002084F85000F4
:105030000320BDE8F8830025401E009020688168A9
:1050400038EA010004D000214945BDD10020F0E735
:105050000121F9E778000020074D4FF400544FF488
:105060007A7600BFFCF73AF921462846FCF70BFC9C
:10507000304602F04FFFF5E70008024010B54FF050
:10508000E020006904F0FAFF012803D0BDE81040D9
:1050900004F072BB10BD000030B593B030216846FB
:1050A000FBF747FB14210CA8FBF743FB1E48002528
:1050B000016841F080510160006800F0805011905B
:1050C0001A48016841F4804101600068022400F43C
:1050D0008040119001200090000401908001CDE9F2
:1050E0000640082008904FF4A870CDE90904072075
:1050F0000B906846FDF7BAF908B172B6FEE70CA945
:105100000F2081E831004FF4A0500F904FF48050F1
:10511000109005210CA8FDF79DF8002801D072B66B
:10512000FEE713B030BD0000403802400070004080
:105130000248016841F470010160704788ED00E0A9
:105140000148FDF74CBF0000080100200148FDF7B1
:1051500046BF00001C030020F0B50268254C264D18
:10516000264E274F274B4FF0804CA04209D0604578
:1051700007D0A84205D0B04203D0B84201D098422F
:1051800004D122F0700E4A6842EA0E02A0421BD0FF
:10519000604519D0A84217D0B04215D0B84213D0FC
:1051A000984211D0184DA8420ED0184DA8420BD0ED
:1051B000174DA84208D0174DA84205D0164DA84259
:1051C00002D0164DA84203D122F44075CA682A4382
:1051D0004D6922F080022A4302608A68C2620A682E
:1051E0008262A04201D0984201D109690163012184
:1051F0004161F0BD00000140000400400008004093
:10520000000C004000040140004001400044014007
:105210000048014000180040001C004000200040F1
:1052200010B501F01F030121046A99408C43046208
:10523000016A9A401143016210BD10B5846842EAC8
:10524000032224F47F440A432243826010BD826813
:1052500022F070020A4342F00701816070470000AB
:10526000F0B5026A22F001020262036A42688469B0
:10527000124E24F073050C682C4323F002058B6852
:105280002B430D4DA84201D0B04205D123F00807B1
:10529000CB683B4323F00403A84201D0B04205D1C0
:1052A0004D6922F4407215438A692A434260846141
:1052B000496841630362F0BD000001400004014001
:1052C000F0B5026A22F010020262026A4368846941
:1052D0000D6824F4E64444EA05248D6822F0200297
:1052E00042EA05120F4D104EA84201D0B04206D13D
:1052F000CF6822F0800242EA071222F04002A84260
:1053000001D0B04207D14D6923F4406343EA8503DD
:105310008D6943EA85034360846149688163026261
:10532000F0BD00000000014000040140F0B5026A39
:1053300022F480720262026A4368C46922F4007235
:1053400024F073050C68124E2C438D6842EA052246
:105350000E4DA84201D0B04206D1CF6822F40062BF
:1053600042EA072222F48062A84201D0B04207D16B
:105370004D6923F4405343EA05138D6943EA05134D
:105380004360C4614968C1630262F0BD000001402E
:105390000004014030B5026A22F480520262046ABD
:1053A0004268C3690D6823F4E64343EA05238D6828
:1053B00024F4005444EA0534084DA84202D0084DB4
:1053C000A84204D14D6922F4804242EA851242602B
:1053D000C36149680164046230BD000000000140FF
:1053E0000004014010B5036A046A24F00104046259
:1053F000846924F0F00444EA021423F00A020A4308
:105400008461026210BD10B5036A23F010030362C9
:105410008369046A23F4704343EA023224F0A00350
:1054200043EA01118261016210BD000070B50446BB
:1054300000680169E26821F440511143016121696A
:10544000A068E26908436169114308432168CA689A
:1054500049F20C639A430243CA6020684169A26919
:1054600021F440711143416131492068884202D0E2
:105470003049884202D1FCF7B7FF01E0FCF7A4FFF6
:10548000E2690023192164253226B2F5004F6268D3
:1054900028D0A0FB0101930F9200FAF751FF0146BB
:1054A000B0FBF5F06FF01802504301EB800006EB03
:1054B0000010B0FBF5F000F0F002B1FBF5F002EBEC
:1054C0000012B1FBF5F06FF01803584301EB8000B8
:1054D00006EB0010B0FBF5F000F00F00216810445F
:1054E000886070BDA0FB010192185B41FAF728FFAC
:1054F0000146B0FBF5F00201B1FBF5F06FF01803C7
:10550000584301EB800006EBC000B0FBF5F000F063
:10551000F80002EB4002B1FBF5F0584301EB8000CC
:1055200006EBC000B0FBF5F000F00700D6E7000086
:1055300000100140001401402DE9F0419846174643
:105540000E460446069D27E0681C25D02DB1FCF7C9
:10555000A7F9A0EB0800A8421ED920680C3050E83B
:10556000001F21F4D07140E80012002AF5D1206814
:10557000143050E8001F21F0010140E80012002A19
:10558000F5D1202084F83D0084F83E00002084F806
:105590003C000320BDE8F0812068006836EA000086
:1055A00004D00020B842CFD00020F3E70120F9E773
:1055B000FEE7000010B50D48FFF76EFA08B10220B3
:1055C00010BD0A480178A22902D1C07AA52801D0CD
:1055D000012010BD06480121006802F0E9FC4FF4EB
:1055E000FA7002F097FC002010BD0000B802002005
:1055F0001400002010EE900A1D49884204DA10EED3
:10560000900A1C4988420BD310EE900A18499FED6E
:105610001B1AC94308441849884202D230EE010AD5
:10562000704710EE900A134AD2431044884202D2C7
:1056300030EE410A704710EE900A11499FED121AA0
:1056400008441049F6EE001A884202D200EE211AF0
:1056500007E010EE900A0D4A1044884204D210EE82
:10566000211AB0EE410A70479FED090A7047000009
:1056700000003442000034C2FFFFD2000000B442F8
:10568000FFFFF8BCFFFF2C0000801D43FFFFF83C2C
:105690000000000003B401984100009850EAC120C6
:1056A00018BF04204A0D18BF40F0010040F2FF72FD
:1056B000B2EB515F08BF40F00200012808BF05208F
:1056C00002B070470907090E002804DB00F1E02052
:1056D00080F80014704700F00F0000F1E02080F81F
:1056E000141D70470000000070B5C1482DED020B7D
:1056F0002DED0E8B82B0119D25F000449FEDBEDB99
:105700009FEDBFEB84423EDBA4F140511098A1F124
:105710007F6108430FD0BC48844202DC28D1109836
:1057200030B39DED100B02B0BDEC0E8B02B0BDE8A6
:10573000704000F071BC9DED100B53EC1D2B51EC33
:10574000100B05F027F99DED100B41EC180B53ECF5
:105750001E2B51EC100B05F01DF953EC182B04F027
:10576000D1FE41EC100B02B0BDEC0E8B02B070BD4F
:105770000120FBF70DF802B0BDEC0E8B02B0BDE8C6
:10578000704000F05DBCA1489FEDA18B844256DAC9
:105790009DED100BB4F1795F0ADA51EC100BFFF7B5
:1057A00079FF042808BF00F05BFC9DED100BDAE7E1
:1057B00053EC102B51EC100B05F0ECF841EC190BED
:1057C00095480621B0EE490AF0EE690A784400F0E7
:1057D000A7FB53EC192B51EC100B05F0DBF841EC57
:1057E0001A0B8E48B0EE490AF0EE690A042178449B
:1057F00000F096FB53EC192B51EC100B05F0CAF896
:1058000053EC182B04F07EFE41EC100B51EC1A0BFC
:1058100053EC102B04F02AFFCDE900019DED000BA5
:1058200053EC102B9DED100B51EC100B05F0B2F862
:105830009DED101B53EC112B04F064FED2E09DEDA6
:10584000100B51EC100B01F07BF953EC182B05F009
:105850009FF99FED730BCDE9000153EC102B9DEDEB
:10586000000B51EC100B05F095F841EC190B6E484C
:105870000621B0EE490AF0EE690A784400F050FBC8
:1058800053EC192B51EC100B05F084F841EC1B0B79
:105890006648B0EE490AF0EE690A0421784400F047
:1058A0003FFB53EC192B51EC100B05F073F853EC44
:1058B000182B04F027FE41EC1C0B51EC190B03F0E4
:1058C00095FA41EC180B5A489FED5BABA04222DCE5
:1058D00053EC1C2B51EC1B0B04F0C8FECDE900016E
:1058E0009DED000B51EC180B53EC102B05F052F80A
:1058F00053EC182B04F006FE53EC1A2B05F04AF873
:1059000053EC1D2B05F01CFA53EC1E2B05F040F94F
:1059100041EC100B5FE08DED008B002000909DEDC1
:10592000000B51EC180B53EC102B04F0EBFD9DED2C
:10593000000B41EC1E0B53EC102B51EC100B05F03F
:1059400029F853EC192B05F023F953EC1E2B04F026
:105950008DFE41EC190B53EC1C2B51EC1B0B04F08E
:1059600085FE41EC1B0B53EC1A2B51EC190B05F087
:1059700011F853EC1D2B05F00BF941EC190B53EC0E
:105980001A2B51EC180B05F005F853EC1B2B05F006
:1059900001F853EC192B05F0D3F99DED000B41EC08
:1059A000180B53EC1A2B51EC100B04F0F3FF9FED86
:1059B000249B53EC192B05F0EBF841EC100B51EC48
:1059C000180B53EC102B05F0BBF953EC192B05F019
:1059D000DFF841EC100B002D3FF7C5AE51EC100B7A
:1059E00004F052FD41EC100BBDE600000000000089
:1059F0000000F03F00000000075C143326A6913C35
:105A0000182D4454FB21F93F0000F07F0000E03FD7
:105A1000000000000000F03F606500006E650000BF
:105A2000000000000000E03FB2640000C06400001D
:105A30003333EF3F00000000000000000000004092
:105A4000182D4454FB21E93F70B59B482DED020B06
:105A50002DED068B079D25F00044A04218DC9748E9
:105A6000844202DC0AD1069840B19DED060BBDECE4
:105A7000068B02B0BDE8704000F0CEBA002DCCBF5E
:105A80009FED8F0B9FED900BBDEC068B02B070BDB0
:105A90008F48A04215DD8F48A042D8BF4FF0FF3499
:105AA00058DD9DED060B51EC100BFFF7F3FD0428BC
:105AB00008BF00F0D5FA9DED060BBDEC068B02B0D9
:105AC00070BD9DED060B51EC100B01F039F8CDE9DE
:105AD000060181489FED828BA0423CDD8248A042B6
